:10C00000C011002005DB00004BDB00006FCB0000FF
:10C010000000000000000000000000000000000020
:10C0200000000000000000000000000057DB0000DE
:10C03000000000000000000085DB000087DB00003E
:10C0400089DB00008BDB000089CB00008DDB00006A
:10C050008FDB00000000000091CB000091DB0000AE
:10C0600093DB000095DB000097DB000099DB00000C
:10C070009BDB00009DDB00009FDB0000A1DB0000DC
:10C08000A3DB000099CB0000A5DB0000A7DB0000CC
:10C0900073CB000075CB000077CB0000A9DB00005C
:10C0A000ABDB0000ADDB0000000000000000000082
:10C0B0000000000000000000000000000000000080
:10C0C000F0B583B004000E000025A078E0270740FB
:10C0D000A078C006C00EA0704148007840007900EA
:10C0E000C0B2C9B2884206D000203D490870202065
:10C0F0006946C87062E07800C0B2C02803D1202031
:10C100003749087004E03648007820303449087018
:10C110007800C0B2002802D1280001250543380666
:10C1200005D500202E4908702800022505436078B7
:10C130005F2812D12B00DBB22200D21D2078411FD4
:10C1400089B2A078C9DF6946C8706846C0780028FF
:10C150002BD150206946C87027E06078722812D130
:10C160002B00DBB22200D21C2078411E89B2A078BD
:10C17000C9DF6946C8706846C078002815D15020CC
:10C180006946C87011E02B00DBB22200D21C207877
:10C19000411E89B2A078C9DF6946C8706846C07878
:10C1A000002802D150206946C8706846C0785028DF
:10C1B00001D1012013E00020094908706846A178E8
:10C1C000C906C90E0170607869464870002069464A
:10C1D00008713200684603C800F009FC0020FEBD6B
:10C1E000AE090020F0B585B004000D006846A178C6
:10C1F000C906C90E0170607869464870002069461A
:10C20000C870002069460871002D01D000202870F8
:10C2100068460078082805DB6078E0210140E029C5
:10C2200000D0D1E368464078413800D150E2401E4A
:10C2300000D138E2401E00D16AE2401E00D1A6E2E1
:10C24000401E00D173E2401E00D1AFE2401E00D17B
:10C2500072E2401E00D1CEE2401E00D19CE2401EA0
:10C2600000D1D5E2401E00D138E2401E00D13BE2B1
:10C27000401E00D1D7E0401E00D1C2E0401E00D1D8
:10C2800091E0401E6DD0401E00D133E2801E00D1EF
:10C29000AFE2801F00D1C7E2401E00D1CDE2401EB8
:10C2A00000D1D2E2801E00D18FE0401E5FD0401E40
:10C2B00042D0401E00D15BE2C01E00D1D2E2801EFF
:10C2C00000D1D4E2401E00D188E2083800D17BE2E0
:10C2D000801E00D1D6E2401E00D123E2401E40D095
:10C2E000401E00D1DEE2801E00D1C6E2C01E00D199
:10C2F000CFE2401E00D1E3E2401E00D1ECE2401E3E
:10C3000000D1F0E2801E00D1F5E2401E00D1FBE238
:10C31000401E00D100E3801E00D1D8E2401E00D1B3
:10C32000C7E2801E00D1FFE2413800D176E21B381F
:10C33000022800D803E343E3A0786021084210D12B
:10C34000A379627920790102E078014389B26846D5
:10C350000078D3DF6946C8706846C078002800D0EE
:10C3600035E300F02DFC50206946C8703DE3A37909
:10C37000627920790102E078014389B26846007849
:10C38000D3DF2200D21D2078411FC9B26846007851
:10C39000C8DF6946C8706846C078002802D15020BE
:10C3A0006946C87013E32200D21C2078411EC9B22E
:10C3B00068460078C8DF6946C8706846C0780028BB
:10C3C00002D150206946C87001E3A37962792079CF
:10C3D0000102E078014389B268460078D3DF220089
:10C3E000D21D2078411FC9B268460078C7DF694670
:10C3F000C8706846C078002802D150206946C870CD
:10C40000E5E22200D21C2078411EC9B268460078BD
:10C41000C7DF6946C8706846C078002802D150203E
:10C420006946C870D3E2002D00D1D0E2684600789A
:10C43000A870E0783E285ED051282FD052281DD019
:10C44000542846D0612800D17FE0732800D197E0BE
:10C45000782800D17DE0792800D1C3E07B2800D185
:10C46000D5E07D2800D1E2E0812800D1AAE0822831
:10C4700000D196E0842800D1FAE010E12900C91C1F
:10C4800068460078E7DF6946C8706846C0780028CB
:10C4900003D1022028705220687003E12B009B1DFD
:10C4A0002A00521D02A968460078D4DF6946C87088
:10C4B0006846C07800280BD105202870512068708C
:10C4C00068460089E8706846008980B2000A2871D1
:10C4D000E8E02800801CECDF6946C8706846C07838
:10C4E000002807D108202870542068706879082136
:10C4F00001436971D6E0A878002811D10B2028707B
:10C500003E2068700B200390044E2F00BF1C039A3E
:10C510003100380000F0A4FC16E000BF6CDB000026
:10C52000A87801280DD12800801CEBDF6946C8706F
:10C530006846C078002807D10B2028703E2068701C
:10C5400002E028206946C870ACE0280000F05BFDDE
:10C55000A8E02900891C68460078DCDF6946C870BD
:10C560006846C07800280AD168460078002802D0C2
:10C570000A20287001E0042028707820687091E07B
:10C5800000222900C91C68460078F9DF6946C87096
:10C590006846C078002803D109202870732068708D
:10C5A00080E02A00D21C002168460078F9DF694645
:10C5B000C8706846C078002803D1092028708220FE
:10C5C00068706FE02900C91C68460078D9DF6946A9
:10C5D000C8706846C078002803D1022028708120E6
:10C5E00068705FE002A8E4DF6946C8706846C078FA
:10C5F00000280BD1032028707920687068460089D4
:10C60000E8706846008980B2000A28714AE0290073
:10C61000C91C68460078F0DF6946C8706846C07873
:10C62000002803D17B206870092028703AE0290097
:10C63000C91C68460078F5DF6946C8706846C0784E
:10C64000002814D168460078002803D0022807D0BB
:10C6500003D307E00220287004E00520287001E0E1
:10C660001420287068460078A8707D20687019E052
:10C6700002A92800C01CF7DF6946C8706846C07868
:10C6800000280BD104202870842068706846008937
:10C6900028716846008980B2000A687102E028208B
:10C6A0006946C87093E12078042808DB6379227911
:10C6B000E17868460078C2DF6946C87007E0002369
:10C6C0002279E17868460078C2DF6946C8707EE169
:10C6D00068460078C3DF6946C87078E1684600782C
:10C6E000C4DF6946C87072E168460078C5DF6946F4
:10C6F000C8706CE12000C01C00F0C4FCA379627912
:10C70000010089B268460078D3DF6946C8705EE1EF
:10C710002000C01C00F0B6FC010089B26846007819
:10C72000D1DF54E1E17868460078D0DF4FE1E1786D
:10C7300068460078CDDF4AE1207803280BDB002033
:10C740000300DBB2082B12DA2279E1781800C0B2BC
:10C75000CFDF5B1CF5E700200300DBB2082B06DA15
:10C760000022E1781800C0B2CFDF5B1CF5E72EE1B4
:10C770002078032805DB2279E17868460078CFDF4E
:10C7800004E00022E17868460078CFDF1FE1E1781D
:10C7900068460078D6DF1AE12000C01C00F072FC69
:10C7A000010089B268460078D5DF10E1684600785C
:10C7B000082805DA2100C91C68460078CCDF02E0B1
:10C7C00028206946C87002E1FF20DEDFE178012001
:10C7D0000843C0B2DDDF6946C870F8E0E0780028A1
:10C7E00004D08020DDDF6946C87001E08020DEDFF4
:10C7F000EDE0E9DFEBE02078042804DB6279E17802
:10C800002079EADF03E00022E1782079EADFDEE048
:10C81000202000F0BEFB6946C870D8E0200000F080
:10C82000C3FB6946C870D2E0E2792100C91C6846A2
:10C830000078E0DF6946C870C9E02279E17868468F
:10C840000078E1DF6946C870C1E02078022804D092
:10C850000020C6DF6946C87003E0E078C6DF69469D
:10C86000C870B4E0E17868460078DADFAFE0200015
:10C8700000F024F96946C870A9E0E17868460078BC
:10C88000D7DFA4E063792279E17868460078E2DFB7
:10C890009DE02078411EC9B22000C01CDBDF694644
:10C8A000C87094E000222100C91C68460078F8DFB7
:10C8B0008DE02200D21C002168460078F8DF86E077
:10C8C0002000C01C00F0DEFB80B2E3DF7FE0E178F7
:10C8D00068460078D8DF7AE0E17868460078F1DFD2
:10C8E0006946C87073E02100C91C68460078EFDF14
:10C8F0006946C8706BE063792279E1786846007810
:10C90000F2DF6946C87062E02100C91C6846007801
:10C91000F3DF6946C8705AE02100C91C68460078F8
:10C92000F4DF6946C87052E02000001D00F0AAFB49
:10C93000010089B2E078F6DF6946C87047E0002060
:10C9400061780902A27811436A46518161786A468A
:10C950005170A1786A46917000216A46117069464B
:10C960004989E122120291421DD1E178090222791E
:10C9700011436A4651816946498989B2090A697039
:10C9800069464989A970012108006946C9780029CA
:10C9900008D0E1786A46517021796A469170012188
:10C9A0006A46117101E001210800C0B2002803D0DD
:10C9B00028216A46D17002E001216A46117106E021
:10C9C00028206946C87002E028206946C870684679
:10C9D000C078062802D128206946C870002D04D0EE
:10C9E0002A00684603C800F002F805B0F0BD13B590
:10C9F00014002078002824D16846007900280FD040
:10CA000004202070E02060700020A070684640780C
:10CA1000E0706846807820716846C078607110E0E8
:10CA20006846C07850280CD00320207040206070E9
:10CA300068460078A07068464078E0706846C07824
:10CA4000207168464078012808D168468078072818
:10CA50002DD18020C0041749086028E0684640783E
:10CA6000412810D0422802D04B2818D01FE0684639
:10CA70008078002807D1802000050F4908608020B9
:10CA800040050C49086068468078002807D180205E
:10CA9000000508490860802040050749086068468D
:10CAA0008078002803D18020C0040349086000F08A
:10CAB00010FC13BD0C0500500805005010B5040013
:10CAC0002000401D00F0AAFA6079002804D1A07966
:10CAD000002801D101206071E078E0712079207296
:10CAE0002000401D00F0CEFA237AE279010089B2DD
:10CAF000A078D3DFC0B210BD01B4401E00BF00BF9C
:10CB000000BF00BF00BF00BF00BF00BF00BF00BF2D
:10CB100000BF00BFF1D101B0704738B505000C006F
:10CB20002100294800F008FFB64805802648B5488E
:10CB30000088FEE770B505000C00160031002000EB
:10CB400080B2FFF7EAFF70BD70B505000C0016005B
:10CB500031001E4800F0F0FE20001D490880AA4860
:10CB600005601A481A480088A7490968FEE700B519
:10CB7000FEE77047704780B568464EDF0528FBD159
:10CB80000120A249087001BD80B500F014FE01BD6E
:10CB900080B500F011FE01BD10B501209C49086070
:10CBA0009C480068040001209B4908602F20FFF783
:10CBB000A3FF200000F06AFE01209849086010BD24
:10CBC000012097490870704754090020740900201B
:10CBD000A609002010B59349002010DF9249086093
:10CBE000914800680400002C04D0904ACB2120001A
:10CBF000FFF7AAFF00208E490870002083490870C3
:10CC000000208C49087000208549087000208A495E
:10CC1000087000208949087000208949087000F0D8
:10CC200056F900F05AFA00F050FB8649086000F00F
:10CC30004EFB8549086001207F49087082480068E2
:10CC400000F083F9814833DF77490860764800684F
:10CC50000400002C04D0754AE4212000FFF774FF83
:10CC60000321142028DF704908606F480068040021
:10CC7000002C04D06D4AE8212000FFF765FF012158
:10CC8000152028DF68490860674800680400002C08
:10CC900004D0664AEB212000FFF756FF032116203F
:10CCA00028DF61490860604800680400002C04D057
:10CCB0005E4AEE212000FFF747FF142023DF5A4988
:10CCC0000860594800680400002C04D0574AF1213C
:10CCD0002000FFF739FF152023DF53490860524831
:10CCE00000680400002C04D0504AF4212000FFF713
:10CCF0002BFF162023DF4C4908604B4800680400D6
:10CD0000002C04D0494AF7212000FFF71DFF012025
:10CD10004F49087000F0EEFA4E4908704648007816
:10CD2000002806D0002044490870002048490870B7
:10CD300054E03F48007800280CD000203C4908709F
:10CD4000414801683F480068FFF74CFA002040491D
:10CD5000087043E02D480078002803D1354800785A
:10CD6000002826D033480078002805D10020274924
:10CD7000087001202F490870334802683649374847
:10CD8000C1DF294908602848006800280AD13248D4
:10CD90000078002806D02C4801682F48007800F061
:10CDA00076FD02E000202349087000202849087021
:10CDB00014E01B480078002810D0002018490870A3
:10CDC000214801681F480068FFF77AF9002802D05F
:10CDD00001201A49087000201D49087000F0BCFAB3
:10CDE0001B480078002892D01A480078002801D00B
:10CDF00000F00FFA00F0FEF83DDF040000F064FAE6
:10CE000085E70000A4090020A0090020A90900204E
:10CE100004100140041501400810014000100140B9
:10CE2000AB09002035CB00009409002038DA00005F
:10CE3000A8090020AA090020AC090020AD090020A3
:10CE4000AE090020980900209C0900200F00010075
:10CE5000B1090020B2090020B0090020AF0900206C
:10CE6000124207D08B0706D00B78491C0370401C78
:10CE7000521EF7D87047830706D00B78491C037001
:10CE8000401C521EF9D1704770B4103A03D378C9D0
:10CE9000103A78C0FBD2530701D318C918C001D586
:10CEA00008C908C0D20704D30B880380891C801CE2
:10CEB000002A01D50B78037070BC704700B5BFF332
:10CEC0004F8F5D485D490860BFF34F8FFEE780B527
:10CED000112024DF0200112027DF0200032111208E
:10CEE00028DF0200112023DF0200002054490860DF
:10CEF000012054490860012053490860002053492B
:10CF000008600020524908600120524908605248D8
:10CF1000524908605048524908604F4851490860DA
:10CF2000F02080055049086000205049884201D215
:10CF3000401CFAE7F02080054D4908604D48006824
:10CF4000102101434B48016001BD80B50100002361
:10CF5000684632DF02000098000702D5180020233F
:10CF600003430098400702D518002023034300988C
:10CF7000800702D51800022303430098C00702D59A
:10CF80001800012303438B70012008706F20487044
:10CF900001BD38B50400384833DF050011DF050056
:10CFA000FFF78CFF502032BD00B50100087805283E
:10CFB00002D00878062812D1C87802001300087938
:10CFC00002021A431300487902041A4313008879B5
:10CFD00002061A43C87902280ADB282009E00878EB
:10CFE000012803D10120254B187001E0282000E022
:10CFF000002000BD80B521480078002802D031DF34
:10D000000100FEE701BD10B504000420207061207E
:10D0100060702000801C00F001F810BD18490968FC
:10D020000A0002700A00120A42700A00120C827092
:10D030000A00120EC27070470400FA050CED00E001
:10D04000081501400810014000100140040500507F
:10D0500014050050740700500102000070070050D2
:10D060006C070050680700500805005040420F0050
:10D070000C05005010ED00E00F000100BE0900207B
:10D080006000001081B0010008786A461070491CE9
:10D0900008786A4650706846008801B0704730B41E
:10D0A000012100220368001D002B0BD00468001D25
:10D0B0000C4202D04D466D1E64192260241D1B1FB8
:10D0C000F0D0FAE730BC704700B5BFF34F8F83480C
:10D0D00091490860BFF34F8FFEE780B50020824979
:10D0E00008700020814908700020814908700020E4
:10D0F0008A49087000208A49087000208949087010
:10D100000020894908700120854908708748006817
:10D110000121884385490860032024DF032027DF9D
:10D120000020B74908600020B6490860B64800688A
:10D130008021C9000143B448016003207C49086094
:10D14000802000017B49086003207B4908600320A0
:10D150007A49086000207A4908600B207949086004
:10D160000D20794908600C2078490860072078492B
:10D1700008608020C005774908606C48006801217C
:10D1800001436A480160A148006801008905C90F90
:10D1900000292FD1062024DF062027DF9C489D4947
:10D1A000086002209C49086000209C490860032117
:10D1B000062028DF062023DF002092490860002097
:10D1C0009749086080200006934908608D480068F0
:10D1D0008021890201438B4801608B480068914996
:10D1E0000140894801603DDF010000208C4A106049
:10D1F0003EDFC8E70220A149086001204A490870C3
:10D2000000F028F800209449087000209C4908701C
:10D2100001BD80B5012044490870414800780028CC
:10D2200017D03FDF00F01AF93C480078002810D1F1
:10D2300000207349086000207949086080200006BA
:10D24000754908606E480068C021890201436C4836
:10D25000016001BD80B534480078002833D000203B
:10D26000314908702E48007800282CD064480068A6
:10D27000C0218902014000290FD0644800680100E4
:10D280008905C90F002908D15F4800688021C900BD
:10D2900001435D480160FFF717FF802000067749D2
:10D2A00008600020564908600020564908600020A8
:10D2B0005B490860002073490870002072490870BB
:10D2C0003EDF00F0B1F801BD7047634870476C481D
:10D2D0007047002011490870704700000400FA05EB
:10D2E00001200E4908707047B3090020B4090020DE
:10D2F000B509002080B50A480078002809D000F060
:10D300003BFA002805D0FFF7A5FF00F0B3F9012094
:10D3100000E0012002BD00000CED00E0B609002095
:10D32000B7090020B9090020B809002000350040E5
:10D3300028070050080500502C0700503407005003
:10D3400030070050083500400C35004010350040D3
:10D35000543500402435004080B549480078002805
:10D3600006D0FFF777FF49480078002847D10BE047
:10D3700047480078002806D0234800688021C9006B
:10D380000143214801603AE00120A84908700020CB
:10D39000B349087001203D490870A4203D49087038
:10D3A0000020A349087036480078401CA04909783D
:10D3B00088420EDB32489E490978405C354909783D
:10D3C0004840344908709A480078401C98490870D1
:10D3D000E9E72B4800782F490978294AC0B210188C
:10D3E00081702B480078002802D000F097F906E001
:10D3F00000F0E0F93DDF224909780029FAD101BDAA
:10D40000200700502407005004050050100500506C
:10D4100001090100146500400463004004610040FC
:10D420007C610040FFFBFFFF80B5062024DF062063
:10D4300027DF17480078002808D08A488A49086002
:10D440008A488B4908600120B14908600321062001
:10D4500028DF062023DF01BD2C09002080B506202F
:10D4600024DF062027DF0A480078002805D00020A6
:10D470007D49086000207E49086001BD08630040C6
:10D4800004090020BA090020BB090020B5090020CA
:10D49000B70900202A09002010B564480078002848
:10D4A0000ED000206149087000209A4908600220CF
:10D4B00097490860B948006897490140B74801603A
:10D4C00014200400A9480078002800D099E0E4B2B4
:10D4D000002C00D0641EE4B2002C7DD10020A449B1
:10D4E00008600020A3490860802000068849086081
:10D4F0009F480068C021890201439D4801603FDFC9
:10D50000FFF7ACFF99480078002865D13DDF9949C5
:10D510000968002903D1A24800780128F2D100202F
:10D520009449086000209E490870002090490860D6
:10D5300000209C49086000208E490860062027DFF3
:10D5400080200006724908608948006880218902AD
:10D55000014387480160944800680100C905C90F6C
:10D56000002906D08F480068C021890201438D48F8
:10D5700001608D48006801008905C90F002927D185
:10D580003DDF7C490968002907D1854800780228D9
:10D5900003D0864800780128EBD100207549086047
:10D5A000814800680100C905C90F0029E1D17D4803
:10D5B0000068000C8007800F0328DAD177480068E4
:10D5C0008021C900014375480160FFF77DFDD0E768
:10D5D00001206649087095E764480078002800D16A
:10D5E00075E77148006801008905C90F002900D15D
:10D5F0006DE7E4B2002C04D101206D490870FFF7FB
:10D6000029FE0020594908701548007800280CD0E0
:10D610000020134908700220994908605F4800689B
:10D620008021C90001435D48016010BDB30900209D
:10D63000BD09002038B5040000200500FFF72CFFCD
:10D64000E4B290480460904800680028FBD00020B5
:10D650008D490860A048006805002800C0B232BDAE
:10D66000B409002001080200106500400109010012
:10D670001465004038B5012098490870A520FFF7CF
:10D68000D9FFFF20FFF7D6FF0400A520604005006A
:10D69000E4B2242C02DAE4B2002C07D13F4800683F
:10D6A0008021C90001433D48016030E000208C49E1
:10D6B00008708B480078E4B2844214D3FF20FFF74F
:10D6C000B9FF8849864A1278891848708548844984
:10D6D0000978401840786840050081480078401C6F
:10D6E0007F490870E5E7FF20FFF7A4FF68400500C9
:10D6F00001207D490870FFF7CFFEEDB2002D04D167
:10D70000FFF7EEFD0120794908707648047031BDBD
:10D710000463004004610040FFFBFFFF38B50120B7
:10D720006E49087072480078050000207049087042
:10D73000A420FFF77FFF2800C0B2FFF77BFF6D1C1E
:10D740006C4804002078FFF775FF641C6D1EEDB275
:10D75000002DF7D12078FFF76DFF01206249087096
:10D76000FFF79AFE00206449087031BDB909002016
:10D77000240700507C61004000B560480078002814
:10D7800001D0002009E05E4800680100C905C90F0A
:10D79000002901D1012000E0002000BD0405005057
:10D7A000BA0900202007005010050050BB090020D6
:10D7B000B80900207047704780B5524800780028AB
:10D7C0005BD05148006800281AD050480068C00754
:10D7D00016D54C48007800280FD049480068010051
:10D7E0008905C90F002908D1494800688021C9006E
:10D7F000014347480160FFF767FC00204249086089
:10D8000044480068002809D040480068800705D5D2
:10D8100000204049086001203F4908703F480068E7
:10D8200000282AD03E480068000C8007800F03289B
:10D8300002D101203B49087039480068000C80077C
:10D84000800F022802D1022036490870364800684D
:10D85000000C8007800F032802D101203349087093
:10D8600031480068000C8007800F022802D1022096
:10D870002E490870002029490860062027DF01BDD5
:10D88000086300401C35004008310040704738B53F
:10D8900005000C00EDB2112D08D0EDB2052D05D01C
:10D8A000EDB2062D02D0EDB2352D14D1204800780E
:10D8B000002804D000201E490870FFF70AFDEDB2D1
:10D8C000112D02D10020207005E0EDB2062D02D10D
:10D8D00000201849087031BD18350040B3090020F8
:10D8E000BC0900202C090020B4090020A809002050
:10D8F0000409002005090020B5090020B609002010
:10D9000010050050B709002000610040046300408A
:10D910000405005004610040B90900207C6100400A
:10D9200024070050BA09002020070050BB0900203E
:10D93000AD090020AE090020002300E05B1CCA5C9A
:10D94000002AC254FAD1704780B500F011F80028BF
:10D9500006D0314831490860802000023049086013
:10D9600000F03EF8002802D001202E49086001BDD9
:10D9700000B52D480078C0B201282FD12B4800787F
:10D980000007000F002829D129480078F021014024
:10D99000002907D127480078F0210140002901D152
:10D9A00001201CE022480078F0210140102907D115
:10D9B00020480078F0210140002901D101200EE02B
:10D9C0001B480078F0210140302907D11948007820
:10D9D000F0210140002901D1012000E0002000BD1C
:10D9E00000B511480078C0B2012813D10F48007863
:10D9F0000007000F00280DD10D480078F0210140EC
:10DA0000402907D10B480078F0210140002901D1BD
:10DA1000012000E0002000BDDFFF07C0040500403A
:10DA2000186C004008060040E00F00F0E40F00F022
:10DA3000E80F00F0EC0F00F0443A5C4D50472053E3
:10DA40006F757263655C4272616E63685C66697271
:10DA50006D776172655F6E726635313432325C416A
:10DA6000503220456D756C61746F725C6D7067200B
:10DA7000733231302076335C536F757263655C6D41
:10DA800061696E2E6300000030B401210268001D40
:10DA9000002A0FD00368C318446808300C4202D033
:10DAA0004D466D1E64191D6825601B1D241D121F27
:10DAB000ECD0F8E730BC704710B50749794418310D
:10DAC000064C7C44163404E0081D0A68891888470F
:10DAD0000100A142F8D110BD08000000280000009C
:10DAE000BFF5FFFFBC00000004090020000000009B
:10DAF00099FFFFFF04000000B800000000090020AB
:10DB000000000000044802680F210A430260034835
:10DB100080470348004700002405004049D9000021
:10DB200079DB000000F00BF8002801D0FFF7C4FFFC
:10DB30000020C046C046FFF74DF800F002F8012073
:10DB4000704780B500F002F801BDFEE70746384691
:10DB500000F002F8FBE7FEE780B5C046C046024A87
:10DB600011001820ABBEFBE72600020042444430FF
:10DB70002E30324230310000C046C046C046C0465A
:10DB8000FFF7D0FFFEE7FEE7FEE7FEE7FEE7FEE772
:10DB9000FEE7FEE7FEE7FEE7FEE7FEE7FEE7FEE75D
:10DBA000FEE7FEE7FEE7FEE7FEE7FEE7FEE7000032
:04DBB0000024F40059
:040000050000DB79A3
:00000001FF
