:020000040000FA
:10000000300800203DA500001504000073A4000086
:1000100000000000000000000000000000000000E0
:10002000000000000000000000000000B1A500007A
:10003000000000000000000015040000150400008E
:1000400019A600001FA600001504000015040000FA
:10005000150400001504000015040000150400003C
:1000600025A6000015040000150400002BA60000C2
:100070001504000031A60000A7050000A905000036
:10008000150400001504000015040000150400000C
:1000900015040000150400001504000015040000FC
:1000A00037A600003DA6000015040000150400005E
:1000B00015040000150400001504000015040000DC
:1000C00000F002F80AF021FA0CA030C80838241811
:1000D0002D18A246671EAB4654465D46AC4201D180
:1000E0000AF013FA7E460F3E0FCCB6460126334285
:1000F00000D0FB1AA246AB4633431847E8A50000E0
:1001000008A600000023002400250026103A01D391
:1001100078C1FBD8520700D330C100D50B607047BF
:100120001FB5C046C0460AF074F904B00FB41FBD35
:1001300040BA7047C0BA7047F0B44046494652468C
:100140005B460FB402A0013001B50648004700BF6E
:1001500001BC86460FBC8046894692469B46F0BC51
:1001600070470000C100000040BA7047C0BA704735
:10017000826902498161024810447047850100008C
:100180000100000001B41EB400B502F0EBFE01B4A2
:100190000198864601BC01B01EBD000040BA704700
:1001A000C0BA7047401E00BF00BF00BF00BF00BF05
:1001B00000BF00BF00BF00BF00BF00BF00BFF1D144
:1001C0007047000070B505460C46164602E00FCC9D
:1001D0000FC5103E102EFAD2082E02D303CC03C551
:1001E000083E042E07D301CC01C5361F03E0217859
:1001F0002970641C6D1C761EF9D270BD10B572B6E4
:1002000000F0E4F800280BD000F0C1F901F041F94A
:1002100003F05EF972490020C86288627149086083
:1002200062B6002010BDF3B5002501200007C06AAA
:1002300081B0C0430006000E0AD16B480168491C1A
:1002400005D000686949884202D06948FEBD012591
:1002500072B600F0BBF8002801D062B688E0FFF764
:100260006BFF00F098F9634C634A00212368CB4090
:10027000DB0720D00346CB40DB0718D14BB2002B65
:1002800007DA1E07360F083EB608B600B618F6693C
:1002900004E09E08594FB600F61936689B07DB0E3E
:1002A000DE40B3041B0E012B05D0032B03D062B636
:1002B0004F48401EFEBD491C2029D7D3019C012078
:1002C0004F4923000AF0E9F9142224242424242489
:1002D00024240B0D1012142016181A1C1E2F002493
:1002E00000E00124C86314E00224FBE70324F9E7DB
:1002F0000424F7E70824F5E70924F3E70A24F1E7E3
:100300000B24EFE70C24EDE70524EBE7072400E0DE
:100310000624D06901210002000AC9070843D06100
:10032000002D04D009E062B601200003FEBD2C4D73
:100330003448E86200F02FF9A8622A493248086080
:1003400032490298086000F026F9214603F0A7F828
:1003500001F066F803F0EAFA03F086F9019800F07C
:10036000A5F8040062B603D0FFF748FF2046FEBDA3
:100370000020FEBD10B5044600F028F8002800D08B
:1003800001202070002010BD21491848086000207D
:10039000704710B50C46102808D011280BD0122831
:1003A0000CD013280ED00120086010BD61682068B1
:1003B000FFF739FF08E0FFF721FF05E02068FFF7AE
:1003C000D9FF01E0FFF7E0FF206010BD05480E49AE
:1003D0000068884201D1012070470020704700006A
:1003E00000050040080000200010001000C00000C0
:1003F0000210000000E100E000ED00E000E400E099
:100400004000004000090000EFBEADDE0400002007
:10041000000000200348004703480449024A034BF8
:1004200070470000D5A400003008002030080020EC
:1004300010B5014620220A4809F067FE084900204D
:10044000C877084610BD0749012048610648074A99
:100450000168914201D100210160704770477047E7
:10046000F80100200005004008000020EFBEADDECE
:100470008307FF22DB0E9A408907090E9940002866
:100480000BDA0007000F0838830848489B001B1848
:10049000D86990430843D8617047830844489B005B
:1004A0001B181868904308431860704710B5012165
:1004B00004460907C86A02063E48120E03D0426885
:1004C0001206120E2AD1CA6A13063B4A1B0E02D12B
:1004D0008B6A934222D1C96AC9430906090E02D127
:1004E000006890421AD13548C16989B23C2915D0BB
:1004F00033490A8CD2B2012A12D18A8C12070FD149
:100500000A8D1206120F012A0AD1898D0906090FD8
:1005100006D1C0692B49000C884201D1022010BDD0
:1005200000210120FFF7A4FF00211820FFF7A0FF02
:1005300000210B20FFF79CFF02211920FFF798FFF5
:1005400002210D20FFF794FF02210E20FFF790FFFC
:1005500002210F20FFF78CFF0221C81FFFF788FF41
:1005600003211620FFF784FF03211520FFF780FFEA
:10057000154A042310461946103802F0D3FD2046D0
:1005800000F02AF8002010BD4B210180704710B503
:1005900000F034F810BD0D48704710B500F056FD5E
:1005A00010BD7047704770477047000000ED00E0D5
:1005B00000E400E00010001000C000004000001047
:1005C000C00F00F0FFFF00002802002003F900C365
:1005D00010B507F060FD10BD10B5FC48017800298A
:1005E0000BD101210170FA480171FA4803F0D8FDDE
:1005F000F94803F09DFE05F0DEFA10BDF3480178DE
:10060000002907D010B500210170F148017103F0F5
:1006100054FE10BD7047ED480078002801D102203B
:10062000704710B503F049FE03F020FF05F0C3FA50
:10063000002010BDF8B50D4604001BD0E7488442E9
:1006400018D301214907E64B8C4201D39C4211D3B8
:10065000002D0FD085420DD38D4201D39D4209D389
:10066000002A07D01646824204D330468A4203D37A
:100670009A4201D20720F8BD06F017F869460090AB
:100680004878287009782170002801D00020F8BD32
:100690000520F8BD072801D9D2487047072A01D99B
:1006A000D148704770B504461D4605F0B3FB0028DD
:1006B00005D12946204605F0F0FB002802D0012193
:1006C0008903084370BD072801D9C648704710B593
:1006D00005F00EFC002802D001218903084310BD5B
:1006E000072801D9BF48704710B504F0D5FE00288F
:1006F00002D001218903084310BD072801D9B94858
:10070000704710B505F002FC002802D001218903D2
:10071000084310BD10B505F09FFC002802D0012150
:100720008903084310BD10B5072801D9AD4810BD95
:10073000002A0AD0A94C1346A24206D3012464071A
:10074000A24204D3A64CA24201D2072010BD0A4601
:10075000002104F0DAF8502803D00121890308436E
:1007600010BD002010BD10B5072801D99D4810BD4F
:10077000002A0AD0994C1346A24206D301246407EA
:10078000A24204D3964CA24201D2072010BD0A46D1
:10079000A02104F0BAF8502803D0012189030843AE
:1007A00010BD002010BD70B5072801D98D4870BD5F
:1007B000002A09D0894DAA4206D301256D07AA4215
:1007C00004D3874DAA4201D2072070BD04F0F2FF86
:1007D000502803D001218903084370BD002070BD5B
:1007E000002809D07D4A904206D301225207904248
:1007F00004D37B4A904201D20720704710B505F020
:100800002BF8002802D001218903084310BD10B540
:1008100005F02EF8002802D001218903084310BDFD
:10082000072801D96F487047002909D06B4A9142C7
:1008300006D301225207914204D3694A914201D260
:100840000720704710B50C4605F040FC20700020D2
:1008500010BD10B505F039FD002010BD072801D9E5
:1008600061487047002909D05C4B994206D30123A7
:100870005B07994204D35A4B994201D20720704733
:1008800010B504F033FD002010BD072801D95548EC
:10089000704710B504F0FEFA002010BD072801D9FA
:1008A00050487047002909D04C4A914206D3012292
:1008B0005207914204D34A4A914201D2072070471D
:1008C00010B50C4604F0F2FA2070002010BD072885
:1008D00001D94448704710B504F0C8FA002010BD93
:1008E000072801D93F48704710B504F0E6FA002008
:1008F00010BD072801D93B48704710B505F03AFAFA
:10090000002010BD072801D936487047002909D0BA
:10091000324A914206D301225207914204D3304A0F
:10092000914201D20720704710B50C4605F03AFA03
:100930002080002010BD072801D92A48704738B50B
:100940006C462170090A6170A270E370694605F077
:10095000FFF9002802D001218903084338BDF8B50A
:100960001C4615460E46072801D91E48F8BD002929
:1009700019D01A4B994216D301225207184F9142AF
:1009800001D3BE420FD329000DD099420BD391421F
:1009900001D3BD4207D3210005D0994203D3914230
:1009A00003D3BC4201D20720F8BD694605F0AEF979
:1009B00068460178407800020843308068468078B5
:1009C00028706846C07820700020F8BD0C00002018
:1009D0008802002068020020D105000000C000004D
:1009E000000900203340000029400000072801D9F9
:1009F000FC48704710B505F0DFF9002010BD07284E
:100A000001D9F848704710B505F0D3F9002010BDA2
:100A1000072801D9F348704710B505F0D1F9002037
:100A200010BD072801D9EF48704710B505F0CDF982
:100A3000002010BD072801D9EA487047002909D0D5
:100A4000E94A914206D301225207914204D3E74A70
:100A5000914201D20720704710B50C4605F0B8F955
:100A60002070002010BD072801D9DE48704710B55E
:100A700005F09CF9002010BD002809D0DA4B9842FF
:100A800006D301235B07984204D3D84B984201D286
:100A90000720704710B505F01FFC002802D0012187
:100AA0008903084310BD002909D0CF4B994206D3D2
:100AB00001235B07994204D3CC4B994201D2072012
:100AC000704710B505F03EFC002802D001218903D3
:100AD000084310BD10B505F0F4F8002802D001213C
:100AE0008903084310BD10B505F0F4F8002010BDCF
:100AF000002809D0BC49884206D301214907884211
:100B000004D3BA49884201D20720704710B5044681
:100B100005F0E5F82070002010BD10B582B0072860
:100B200002D9B04802B010BD002909D0AE4CA14294
:100B300006D301246407A14205D3AC4CA14202D2E2
:100B4000072002B010BD0C786B461C704C785C70AE
:100B50008C789C70C978D9701A71694604F0AAFE25
:100B60000028EED001218903084302B010BD0728F8
:100B700001D99C48704708B56B4619705A70694690
:100B800004F080FE002802D001218903084308BD3B
:100B9000072801D99348704710B504F0B2FE002031
:100BA00010BD10B504F0A3FE002010BD002809D030
:100BB0008D49884206D301214907884204D38B49D5
:100BC000884201D20720704738B50446684604F0D1
:100BD00091FE68460178407800020843208000209A
:100BE00038BD002909D0804B994206D301235B0709
:100BF000994204D37D4B994201D20720704710B52A
:100C000005F0B0FE002802D001218903084310BD81
:100C1000002909D0744B994206D301235B079942FE
:100C200004D3724B994201D20720704710B505F0EA
:100C3000A5FE002802D001218903084310BD072822
:100C400001D96848704710B505F0A6FE002802D00B
:100C500001218903084310BD072801D96148704765
:100C600010B505F0A5FE002802D001218903084334
:100C700010BD002909D05C4B994206D301235B07C4
:100C8000994204D3594B994201D20720704710B5BD
:100C900005F019FF002802D001218903084310BD87
:100CA000002909D0504B994206D301235B07994292
:100CB00004D34E4B994201D20720704710B505F07E
:100CC00012FF002802D001218903084310BD00292A
:100CD00009D0454B994206D301235B07994204D3BF
:100CE000424B994201D20720704710B505F014FF1E
:100CF000002010BD10B505F032FF002802D0012100
:100D00008903084310BD70B5002811D0364A9042BF
:100D10000ED301235B07354C984201D3A04207D381
:100D2000002905D0914203D3994203D3A14201D2B5
:100D3000072070BD05F031FF002070BD072801D9E4
:100D40002848704770B514460546012226485207C8
:100D5000264B002905D081420BD3914201D3994201
:100D600007D3002C07D0844203D3944203D39C4280
:100D700001D2072070BD002902D0284604F0FFFDF3
:100D8000002C03D02146284604F037FE002070BD19
:100D9000072801D91348704770B51446054601224B
:100DA00011485207114B002905D081420BD39142C3
:100DB00001D3994207D3002C07D0844203D3944235
:100DC00003D39C4201D2072070BD002902D02846DF
:100DD00004F0F7FD002C03D02146284604F01AFE4B
:100DE000002070BD3340000000C00000000900205A
:100DF000002809D09049884206D30121490788423A
:100E000004D38E49884201D20720704710B50446AA
:100E100004F068FF2070002010BD002809D086492A
:100E2000884206D301214907884204D38349884276
:100E300001D20720704710B5044604F058FF207017
:100E4000002010BD072801D97D487047002909D02E
:100E5000794A914206D301225207914204D3774A3C
:100E6000914201D20720704710B50C4604F045FFAF
:100E70002070002010BD072801D971487047002953
:100E800009D06D4A914206D301225207914204D300
:100E90006A4A914201D20720704710B50C4604F00F
:100EA0002FFF2070002010BD10B503F08FFF002031
:100EB00010BD10B503F090FF002010BD10B5002844
:100EC00009D05D4A904206D301225207904204D3D2
:100ED0005A4A904201D2072010BD5A4A811A00296D
:100EE00001DD0B2904DB0B22564909F072F906E0FB
:100EF0000021535C4354491CC9B20B29F9D300208B
:100F000010BD10B40123002809D04B4A904206D3EB
:100F10005C070021A04205D3484CA04202D210BC7D
:100F2000072070470822027042708170B222C2709E
:100F3000362202714171D5218171C37110BC00202C
:100F40007047F8B58446012606203B4D76073B4F97
:100F50000C46002905D0A94213D3B14201D3BC42AB
:100F60000FD3002A05D0AA420BD3B24201D3BA4212
:100F700007D3002B07D0AB4203D3B34203D3BB420A
:100F800001D20720F8BD6146002908D001290BD005
:100F90000229F7D1207805F007FE0020F8BD20785F
:100FA00003F0A5FA0020F8BD03F0A5FA2070F4E7DD
:100FB000F8B58446012606207607204F1E4D0C46C4
:100FC000002905D0A94213D3B14201D3BC420FD3AB
:100FD000002A05D0AA420BD3B24201D3BA4207D3AA
:100FE000002B07D0AB4203D3B34203D3BB4201D2A1
:100FF0000720F8BD614600290AD00129F9D112481D
:1010000022788105002A826A10D00A4382620BE0AE
:10101000002630462660002D06D9317808F095FA72
:10102000761C2060AE42F8D30020F8BD8A43EDE77D
:1010300010B508F0FAFF10BD00C000000009002044
:1010400033400000B4A600000005004010B5C038D1
:101050000C4640282DD203007B441B79DB189F44AB
:101060001F222933373B3F434A515A5F62676D72F3
:101070007A80868B959CA2A8AEB4B9BFC5CACEEFC4
:10108000F3FAEBEAE9E8E7E6E5E4E3E2E1E0DFDEF4
:10109000DDDCDBDAD9D8D7D6D5D4282828D328D296
:1010A000FFF7B9FA04E0A26861682068FFF7C2FAA6
:1010B000206010BD207BC3B2207AC2B22079C1B2B9
:1010C0002078FFF7E7FAF3E72078FFF7FCFAEFE77D
:1010D0002078FFF705FBEBE72078FFF70EFBE7E74B
:1010E0002078FFF717FBE3E72079A268C1B22078E8
:1010F000FFF719FBDCE72079A268C1B22078FFF77F
:1011000032FBD5E7207BA268C3B2A08881B22078E9
:10111000FFF749FBCCE720786168FFF781FBC7E761
:10112000FFF797FBC4E720786168FFF797FBBFE7FD
:101130002079C1B22078FFF7A8FBB9E72078616871
:10114000FFF7ACFBB4E7207AC2B22079C1B22078B5
:10115000FFF7BDFBACE72079C1B22078FFF7C0FBF9
:10116000A6E7A08881B22078FFF7C3FBA0E720782C
:101170006168FFF7C7FB9BE7207BC3B2207AC2B24E
:10118000A08881B22078FFF7D6FB91E72078E3684A
:10119000A2686168FFF7E3FB8AE7A08881B2207844
:1011A000FFF724FC84E72079C1B22078FFF727FC01
:1011B0007EE72079C1B22078FFF72AFC78E7207912
:1011C000C1B22078FFF72DFC72E720786168FFF745
:1011D00031FC6DE72079C1B22078FFF744FC67E766
:1011E0002079C1B22068FFF747FC61E72078616889
:1011F000FFF759FC5CE72078FFF76CFC58E7207894
:10120000FFF771FC54E7B4E0ACE0A5E09EE098E0A5
:1012100091E08BE085E07FE074E06DE067E061E005
:101220005DE058E053E04EE045E041E03BE035E072
:1012300030E02BE026E020E015E00CE004E0FFE7E2
:101240002068FFF755FC33E7207A6168C2B2207846
:10125000FFF763FC2CE7207AC2B22079C1B2207874
:10126000FFF785FC24E7207BC3B2207AC2B2207945
:10127000C1B22078FFF78CFC1AE7208880B2FFF714
:1012800090FC15E72068FFF791FC11E72068FFF755
:10129000AFFD0DE72068FFF7C0FD09E72078616822
:1012A000FFF7D0FD04E720786168FFF7E4FDFFE673
:1012B000FFF7FAFDFCE6207AC2B22079C1B22078AD
:1012C000FFF7F7FDF4E62068FFF7F8FDF0E6206889
:1012D000FFF717FEECE62068FFF782FAE8E6FFF773
:1012E00096FAE5E620786168FFF77BFCE0E6207877
:1012F0006168FFF78DFCDBE62079C1B22078FFF74B
:101300009EFCD5E6207BC3B2207AC2B22079C1B25E
:101310002078FFF7A1FCCBE620786168FFF7A9FCF5
:10132000C6E620786168FFF7BBFCC1E620786168FB
:10133000FFF7CDFCBCE6A08881B22078FFF7DAFC8D
:10134000B6E661682068FFF7DEFCB1E62078A268A7
:101350006168FFF7F3FCABE62078A2686168FFF7ED
:1013600017FDA5E62078E368A2686168FFF7E9FD4C
:101370009EE62078E368A2686168FFF719FE97E6A9
:10138000F8B5FE4C607A217A88421BD00126FC4DCC
:101390000027207A215C14200A4642435019037C1E
:1013A000052B10D0062B19D0072B23D0437C012B03
:1013B0002BD02120F3A1400109F055F8617A207A61
:1013C0008142E6D1F8BD0674207A401C4007400FE8
:1013D0002072491CC8B2AA58022109E00674207A7A
:1013E000401C4007400F2072491CC8B2AA58032174
:1013F0009047E3E70674207A401C4007400F2072B4
:10140000491CC8B2AA580821F2E74774207A401C48
:101410004007400F2072491CC8B2AA580721E7E7CD
:1014200070B5DB4D05202871DA4800244470047043
:10143000183044720472D84808F02AFBD748047464
:10144000AC71D748611E41606C708477C4772C7092
:101450004477D448022104704470D348047528307E
:101460000470491EFAD1012001F0E0F8002001F0DB
:10147000DDF80120A87002F063F8CC4802F072F8A1
:10148000CB4C2070CB4802F06DF8607001F072F820
:1014900070BD10B501F099F8C54C207802F080F8C5
:1014A000607802F07DF8BA4CE078002805D008F0AA
:1014B0002CF901F086FB0020E07010BD70B5B44C33
:1014C000A078002805D0FF20AEA1B23008F0CBFFF5
:1014D00070BDA079002804D1FF20AAA1953008F0A2
:1014E000C2FF0125A5700026A671207904211422CF
:1014F0005043A34AAA4C801801746068401C04D071
:10150000481F6060012001F091F8002001F08EF882
:1015100001F072F801F07DF901F002FAA1480078BB
:10152000022804D0032804D1E07F002801D0A57749
:1015300000E0A67701F059F970BD034690490420F8
:10154000142242435218203A127F002A04D0401E2F
:101550000006000EF4D170471422424351180A4687
:10156000403AD362012220390A777047012805D01A
:10157000032805D1002903D1002070470029FBD0A2
:1015800010B4874C00236377864A002890700CD0F3
:1015900002280AD007291AD20B007B441B79DB18DA
:1015A0009F441505070D0F111300D37003E01B2096
:1015B00000E03A20D0700120607710BC70475820BE
:1015C000F8E77720F6E79620F4E7B520F2E710BCBD
:1015D0000020704710B57348407801F01EF980B2C2
:1015E00010BD411E1422504310B5654A8418203C9A
:1015F000032902D8207F002803D162A16E4808F099
:1016000032FF207F012804D001205EA1400208F0B3
:101610002AFF0020207710BD70B55E4C60782178DD
:10162000884201D1012500E0002501F090F801F089
:10163000F4F861782278914201D1012100E0002183
:10164000A942EBD170BDF7B58CB006460D981421B8
:10165000401E0090C0B202904843494945182846B0
:101660000195007C2D1D07282DD1444F00203C7A88
:10167000797AA14224D03A5D02998A4209D10028A0
:1016800005D040A14D4808F0EEFE012003E0012006
:1016900001E0002804D0611C4907490F795C3955E5
:1016A000641C6407797A640FA142E4D1002807D052
:1016B000787A002802D0787A401E00E007207872FD
:1016C0000198012101740099314C0D9803290FD81C
:1016D000142148432A4940182038007F002807D0A9
:1016E0000198007C012807D00E98C07A012807D005
:1016F00024A1334808F0B7FE0E98C07A012839D1EA
:1017000001981F4A007C02280FD01C4C607A217A75
:10171000401C4007400F884203D11AA1294808F015
:10172000A2FE01990120487433E12079029B014611
:10173000984206D00146142778438018807C98424E
:10174000F8D12379834208D1217914235943891888
:10175000897C21710121617107E0142343439B18A7
:10176000142779439B7C89188B74142305215843D3
:10177000801881740E98007A062825E078030020EE
:10178000900200207372635C72656D2E630000002E
:10179000A403002060030020AB03002064030020AA
:1017A000840300200F0000208C0200202F30000056
:1017B0000D00002081130000FF0100004502000021
:1017C0004E0200005B02000013D203007B441B7931
:1017D000DB189F44020C0A08060400200FE0B42026
:1017E0000DE073200BE0322009E00A2007E008201A
:1017F00005E0FF20F649443008F035FE0020039054
:101800000E98C07A02280E9824D0807A28720E98FA
:1018100003990068401A28600E99097A002961D05E
:101820000221401A0002000A28600E9801684068F0
:1018300008186860C01D0002000A68600E9806273C
:10184000407AA8720E98007A687208F035FC002879
:101850004AD053E04168007A00282DD002200918B0
:101860000398C01D09182079052827D0D948039A64
:101870004078904200D81046801A4218D648921DEF
:101880008446207914235843D44BC0184368806899
:101890009B1B801B1B0200021B0A000A9A4204D8F1
:1018A000CD4A934201D8604508D922791420424399
:1018B000CA48101880680CE00420D0E7C548039A95
:1018C0004078904200D81046801A8019801D00028E
:1018D000000A286040180002000A68600020287290
:1018E0006868A7E704219CE7687A032806D20028E5
:1018F00004D0039838210F1A32200390B54801789C
:10190000012901D003290AD140780399884206D9D8
:10191000B349C97F002902D10399401AC719AE49BA
:1019200038468C4629688F1B69683A02891B0B026E
:10193000120A1B0A90421DD8A74882421AD8634552
:1019400018D82079012205282ED0002001230493E5
:101950002379BC4614225343A04A9B185A68921B11
:101960008A4203D29A68921B62452BD800220AAFA2
:101970003A5430E0019905209A4C0874607A217A33
:10198000401C4007400F884203D197A1994808F0B6
:101990006AFD617A02986054607A401C4007400FEB
:1019A000607200200FB0F0BD0199022302980B7401
:1019B0002379052B00D023798B742071627101206B
:1019C0000FB0F0BD01220AAF3A549A7BAF7ABA4207
:1019D00001D8002204929B7C401CC0B2052B03D08E
:1019E000049A002AB6D1A4E0049800286FD0257983
:1019F0000520002704900AA8C05D01282CD004957A
:101A00001420454375487F1C2818857CFFB2052D9E
:101A1000F1D1019802230374704F2079052857D023
:101A200025790520049001984068811B14206843A3
:101A3000C0194268921B8A4265D92079A84252D1C6
:101A40000198029A03742179052900D021798174C3
:101A500022710120607169E02079A8420BD12179BF
:101A6000142041435D480818807C2071012060717A
:101A70000020207010E00498052803D15AA15E4888
:101A800008F0F1FC1420554A68438018817C0498C2
:101A900014235843801881741420504A0621684347
:101AA000801801744F48417A007A491C4907490F50
:101AB000814203D14CA1514808F0D5FC4948417AF4
:101AC0004554417A491C4907490F417298E730E073
:101AD000227902990198052A00D022798274217115
:101AE0000120607122E00498052803D13EA14448FA
:101AF00008F0B9FC049814225043C019029981746B
:101B00000198857412E0807C052807D0049505466D
:101B10008CD135A13B4808F0A6FC21E014214D43AF
:101B2000E9190298887401990520887401200FB082
:101B3000F0BD019905202B4C0874607A217A401C75
:101B40004007400F884203D127A12F4808F08BFCA3
:101B5000617A02986054607A401C4007400F6072BE
:101B600000200FB0F0BD70B50D4606462749002491
:101B70002046891BA04103D21BA1254808F073FC15
:101B800024490020491BA04103D217A1224808F094
:101B90006AFC224A70190021821A8C4101D3204923
:101BA000401870BDF8B5401EC0B2142148430B491F
:101BB0004518687B06283DD203007B441B79DB185F
:101BC0009F44023634323004002067E0B4203AE00B
:101BD000841700000F000020FFFF3F00900200204C
:101BE00084030020780300207372635C72656D2E9D
:101BF00063000000A3020000DE020000E302000018
:101C000007030000170300001D030000FF7F841E70
:101C1000290300000020A1072A0300000080841E81
:101C200000807BE173200EE032200CE00A200AE005
:101C3000082008E0FF20FE49443008F014FC697BCE
:101C4000002000292AD00221401869680024401889
:101C50000C2100026956000A002921DB00F0DDFD9D
:101C6000F44A06460C27EF570021101AA14103D26F
:101C7000EF49F14808F0F7FBF0490020C91BA041EB
:101C800003D2EB49EE4808F0EEFBEE4AF0190021D2
:101C9000821A8C4101D3EC494018F8BD0421D3E7E6
:101CA00000F0BBFD0C21695600224018E149091AD9
:101CB000A241F2D24042F8BDF0B5074683B0E348F6
:101CC0000E46029007F0ECFEE14C00282DD0E14DCD
:101CD000287C002803D0E0A1E24808F0C4FB0120E2
:101CE00028742F733078287270786872D94FDE4A62
:101CF0002946706800F09DFD0A2028560F2804DD53
:101D00001F38B8723868401C38600021B0686A46D5
:101D10000091117101AA694600F08BFD6A4604200A
:101D200010560F2846DD012045E060782178401CE0
:101D30004007400F884203D1C7A1CC4808F093FB6D
:101D400060780101CA4809180F73617809010D18FC
:101D500030782872707868722A460A32294670688C
:101D600000F067FD0A2028560F2804DD1F38A872EE
:101D70002868401C28600021B0686A4600911171F3
:101D800001AA694600F055FD6A46042010560F2846
:101D900001DD012000E00020009940186860307BE0
:101DA000E8726078401C4007400F6070029807F0AE
:101DB0008FFE05E00020009940187860307BF872B3
:101DC00060782178884224D0AA480579052D22D050
:101DD00000F0BDFC14214D43A74969180A7C042A70
:101DE00017D0032A15D04B6889681B1A091A1802E4
:101DF0000902A24A000A090A06280AD31346904299
:101E000007D8994205D860782178884201D000F03F
:101E1000ECFC03B0F0BD607821788842F7D103B0C4
:101E2000F0BD10B5002000F0EEFB10BD10B5012094
:101E300000F0E9FB10BDF8B50546022875D08D4CC1
:101E40002079052803D184A18D4808F00CFB0020DF
:101E5000A0700126A671207903211422864F5043D9
:101E6000C019017400F0C6FC2800864D08D0012876
:101E70001CD0022859D003287ED077A1824833E0B5
:101E80006670002000F0D2FB6968481C04D0012372
:101E90000022184600F002FC20792179401CC0B2D3
:101EA000142251437A5801219047F8BD012000F0D7
:101EB000BDFB607800280CD06868401C09D02079F0
:101EC0002179401CC0B2142251437A580621904710
:101ED000F8BD287E01280AD0022812D0032825D078
:101EE000042836D05CA1694808F0BDFAF8BD207816
:101EF000002804D00020207000F081FCEE77002044
:101F000025E0E078002804D107F0E0FB00F030FE87
:101F1000E67020792179401CC0B2142251437A58CE
:101F20000021904700202876F8BD2FE0297A286804
:101F30000123411A0022184600F0B0FB2078002847
:101F400004D00020207000F05AFCEE7702202876A2
:101F5000F8BD297F28680123411A0022184600F0A5
:101F60009DFBE078002804D107F0B0FB00F000FEF4
:101F7000E6702079401C00E00DE02179C0B2142207
:101F800051437A58002190472E76F8BD404800789A
:101F900001F00CFBF8BD20792179401CC0B214225D
:101FA00051437A5805219047F8BD10B5314C20793E
:101FB000052803D128A1374808F055FA207921795E
:101FC000401CC0B2142251432B4A5258042190475E
:101FD00010BDF0B583B0052600F0B9FB254C0546D1
:101FE00021792D48019005291FD0217914204143E2
:101FF00021480918097C042917D02179142251435A
:102000000818007C03287DD001981C4902684068AC
:10201000521B401B12020002120A000A062A71D348
:102020000B468A426ED898426CD81648406835E014
:10203000E81B0000FF7F841E290300000020A10789
:102040002A0300000080841E00807BE1AB03002097
:1020500060030020640300207372635C72656D2E60
:10206000630000006E0300006E0300205F030000A9
:10207000E0020020A403002090020020FFFF3F00A8
:10208000A203000084030020F3030000E703000024
:102090000D000020FA03000090030020401C03D034
:1020A000F4A1F74808F0DFF90020607020790528D6
:1020B00008D1F448407F002804D0F348C17841702B
:1020C000817801702079052814D0207914214843A3
:1020D000EE494018007C04280CD126792279012091
:1020E00014235A435218107422795A435118897C88
:1020F00021716071E64F78783978884215D0387848
:10210000010100E07EE1E3480A1839780901081866
:10211000017B2846FFF797FA3878401C4007400FAC
:102120003870787839788842E9D1DB4F387C0028DC
:1021300006D0397B3A462846FFF785FA00203874E6
:10214000052E1BD0142031464143D0480818017C8D
:10215000012913D10721D14F0174787A401C08401E
:10216000397A884203D1C3A1CD4808F07CF9787A46
:102170003E54787A401C4007400F78722079052839
:102180007ED0607900287CD00020607121791420F5
:102190004143BE48BB4F0E18C249B3687268F66827
:1021A0008E604B600A60797D002910D0022621796B
:1021B0001422B64851430818407B062815D2030064
:1021C0007B441B79DB189F44040E0C0A0806042686
:1021D000EDE700200FE0B4200DE073200BE032208B
:1021E00009E00A2007E0082005E0FF20A1A1443013
:1021F00008F039F90020C1B23972787D022801D087
:1022000001280FD1F8684018421B1202120A382A1E
:1022100008D93238032100027975000AF8603220AB
:1022200038720AE0322908D2E07800280ED107F08F
:102230004DFA00F09DFC012007E0E078002805D071
:1022400007F063FA00F0BDFC0020E0708E4A062122
:10225000507838771278012A01D0032A06D101225A
:1022600022703A7A904201D9811A891DBA7F002AD8
:1022700000D0891C2378002B01D1002A61D001E015
:102280008BE09BE08C468849009101990B68496876
:102290005B1B491B09021B02090A1B0A01919C4591
:1022A00039D8814DAB4236D8019B00998B4232D848
:1022B000397A884214D9FB68421A9A1A1202120A11
:1022C000101880190002000AFA603860002905D051
:1022D000032038760006000E3ED14CE00120F8E7DE
:1022E00081420BD9FA68511889190902090A396023
:1022F000002801D00420ECE70220EAE7002A03D1FD
:102300005CA16A4808F0AFF8F86880190002000A7A
:102310003860002013E000202070B877397A002957
:1023200008D0F868401880190002000A38600220BE
:10233000387611E0F96889190902090A3960387696
:1023400019E0387A00280FD0F968081880190002BF
:10235000000A386002203876F868012381190022CB
:10236000184600F09BF909E0F86880190002000A9D
:10237000386000203876012000F058F920791421C7
:10238000484342490C2240188256012300203968F4
:1023900000F084F900F0B8FA10E0012000F046F9EE
:1023A000002000F043F900F027F9E078002805D07C
:1023B00007F0ABF900F005FC0020E070314DA87F7C
:1023C000002804D000F01BFA0020E877A877687F87
:1023D000002804D02C48C1784170817801702078A1
:1023E000002806D000202849E8770978002900D184
:1023F00020702A48417A007A814203D02C484078E4
:1024000001F0D4F803B0F0BDF0B52A4C07462079AE
:1024100083B0052803D117A1274808F024F82079B4
:1024200014211A4E48438019007C032804D05120FF
:1024300010A1000108F017F8124D6868401C03D085
:102440000CA11E4808F00FF8207914214843811987
:102450000C20085600216A4600911171C01901AA8A
:10246000694600F0E6F96A46042010560F2827DD79
:10247000012026E07372635C72656D2E63000000BC
:1024800036040000840300200F000020900200208A
:1024900060030020E0020020640300207803002095
:1024A0005C04000090030020FFFF3F00AE0400002A
:1024B0000D000020A40300200F05000011050000FE
:1024C000002000994018296840180102090A696033
:1024D0006078002804D001230022184600F0DEF8BE
:1024E00003B0F0BDF8B51D4D0A1A00242346551B54
:1024F000A34106D3194E431A254600279E1BBD4112
:1025000001D21046F8BD164E0025B21AA54103D2DD
:10251000721C101A4018F8BD114D0022EB1AA2418E
:1025200004D26A1C511A08184042F8BD0DA1104887
:1025300007F099FF0020F8BD10B5014601230022E5
:10254000022000F0ABF810BD10B5022000F06EF8CC
:1025500010BD10B500F0FBF810BD00000020A10771
:10256000FF7F841E7372635C72656D2E63000000D2
:102570003405000030B40121BD48C9020160CD100E
:1025800005604A030260BB4803681B021B0A036024
:1025900004680023240A24020460B7480468240A5B
:1025A00024020460B548012444608460B44C236074
:1025B0006360A360B34B19601D601A60B24B196071
:1025C0001A600121016030BC704710B40121A84895
:1025D000CC0204600A0202600B060360A748416057
:1025E0008160A7490020086048608860A5480460B1
:1025F0000260036010BC70470121A248C90201605B
:10260000C91001607047002805D0012805D00228B4
:1026100005D19E4870479E4870479E48704710B548
:102620009DA18C2007F01FFF002010BD70B5002178
:10263000A04CA14DA14A924B002808D001281FD0E0
:10264000022824D094A1B42007F00DFF70BD012012
:102650000004A060A86011601960994B42109A6054
:10266000984A9060824A00121060864A106096482C
:10267000016087480160954801609548017070BD10
:1026800001204004A060A8605160596070BD012025
:102690008004A060A8609160996070BDF8B5944610
:1026A000844A854D00240127754E002808D0012852
:1026B00036D0022844D078A1E92007F0D4FEF8BD36
:1026C000891E0902090A01200004906034606860D4
:1026D0007A4A1160012B21D000217D4A7D4B517037
:1026E00061463D31DC63DF637B4B5C6002249C60B0
:1026F00004241C61744B196074490F60614B891587
:102700001960704B58606048016075487349C1603A
:1027100086606B49600348601770F8BD0121DCE7F3
:1027200001205C4E40046F4F012B04D13460506097
:1027300068603960F8BD9060346068603960F8BDE9
:102740000120524E8004684F012BF4D1EEE7674818
:102750004068704770B54A4D28680026554C0128DE
:1027600006D1A068C00303D501200004A0602E603C
:102770006868012809D1A068800306D501204004BB
:10278000A0606E600120FFF756FBA868012809D100
:10279000A068400306D501208004A060AE6002203E
:1027A000FFF749FB70BD10B54949087800281AD0D9
:1027B0000120434AC0039060424A400090602C4A86
:1027C000001210602F4A10603F4A00201060304A0B
:1027D00010603E4A106008704A78002A02D04870A3
:1027E000FFF729FB10BD0320FAE70120404900064E
:1027F00008607047012023490006086070470120E7
:102800003B4940050860704701201E4940050860AB
:10281000704730490020C8637047410A354AC005F7
:10282000C00D50435143801C08225040400A0818F4
:10283000704710B4304C430B63431B0C5C020C60BC
:102840002C4C6343C31A2D485C025843294B400D5E
:102850004343E31A9B1C082463405B1213700A680D
:102860001018086010BC704710B5FFF7B2FB10BD20
:1028700080E100E008E400E018E400E000B000407F
:1028800040B1004080E200E000E100E048B10040DB
:102890004081004044B100407372635C72656D5FBB
:1028A00068616C5F6576656E745F74696D65722EC4
:1028B0006300000000B3004040B3004040B500405A
:1028C00000F5014000830040408500400082004048
:1028D00013000020C08F00400085004000800040B1
:1028E00080F5014044B5004048B5004000B50040C7
:1028F00000E200E0093D0000378600006F0C010097
:1029000010B5FFF752FB10BD012001218140064A9E
:10291000116000BF00200549C8630120C8637047EB
:1029200000200249C863704780E100E0C01F0040FA
:1029300070B520380C46030007F0AFFE331B1F2391
:10294000272C31373C41484E5155595D616F7367B3
:102950006B767A7E82868A8E92969AB2B5B8BCC021
:10296000C4C8CED2D6DBE0F0EEEDECF4F8E9FCE73B
:10297000E600206807F08CF8F4E0206807F090F893
:10298000F0E0206807F0A4F8ECE0207840B207F00F
:10299000C2F8E7E0207840B207F0E3F8E2E0207800
:1029A000616840B207F0F9F8DCE0207840B207F047
:1029B00009F9D7E0207840B207F014F9D2E0207985
:1029C000C1B2207840B207F01EF9CBE020786168F0
:1029D00040B207F04EF9C5E007F05AF9C2E02068AE
:1029E00007F05EF9BEE0207807F073F9BAE02068DE
:1029F00006F06AFFB6E0206806F06AFFB2E02079D0
:102A0000C1B2206806F06BFFACE0206806F0B4FDB0
:102A1000A8E0206806F0B5FDA4E0207806F0B5FD3A
:102A2000A0E006F0C3FD9DE0207806F0C5FD99E02A
:102A3000207806F0D7FD95E0206806F0F0FD91E0E3
:102A4000206806F0F2FD8DE0206806F0F4FD89E0D4
:102A5000206806F0F5FD85E0206806F0F7FD81E0CE
:102A6000206806F0F9FD7DE0206806F0FAFD79E0C7
:102A700001F041FDC0070025002805D001F03FFD11
:102A8000002801D0256070BD01F035FD800703D519
:102A900001F03CFD0028F5D12046FDF769FB61E01F
:102AA00000F079F85EE000F0A6F85BE0206800F046
:102AB000AEF857E0206807F0A1F953E0206807F06E
:102AC000A3F94FE0206807F0A4F94BE02078A26852
:102AD000616807F0A3F945E0207807F0ABF941E021
:102AE000207807F0B3F93DE02078616807F0BBF982
:102AF00038E02078616807F0C2F933E02079C1B28C
:102B0000207807F0F1F92DE02EE01CE012E016E04D
:102B10000CE007E023E01FE01AE0FFE7206807F081
:102B20001EF91FE0206807F059FA1BE0206807F043
:102B30003EFA17E0204607C800F04FFE12E020687A
:102B400000F09BFE0EE06168206800F0BDFE09E029
:102B5000206801F031F805E001F047F802E0206854
:102B600001F05FF8206070BD0120086070BD0000BA
:102B700010B5EFF31080C407E40F72B6D648417861
:102B8000491C41704078012801D107F08DFA002CD2
:102B900000D162B610BD70B5CF4CE07800280AD1E4
:102BA0000125E570FFF7E4FF07F086FA002804D05E
:102BB000002007F03FFA002070BDC84865714560ED
:102BC000F9E770B5EFF31080C507ED0F72B6C24C90
:102BD0006078002803D1C2A18F2007F044FC607800
:102BE000401E60706078002801D107F061FA002D66
:102BF00000D162B670BD10B5B748C178002904D0C5
:102C000000214171C170FFF7DCFF002010BD10B53D
:102C1000044607F051FAB049C978084000D00120B5
:102C20002060002010BDF8B50246AB4C0026A6710E
:102C30000820042101251027130007F02EFD0D08A0
:102C40000A0C0E101214161E2621232528002571A9
:102C500022E0022001E021711EE020711CE02771BA
:102C60001AE02020F9E7012616E0FFF781FF07F0C0
:102C700023FA0028FBD002260EE02171A5710BE09B
:102C80002771FBE7202000E040202071F6E7FF20BD
:102C900093A17E3007F0E7FB07F01AFA002809D06D
:102CA00007F01CFAB04205D1304607F01AFA0028A6
:102CB000FAD024E001208007C5608D4A00215160D0
:102CC0008C4A9661854B02225A6085608A48036966
:102CD0000569DB43DB06DB175B1C10273D43056101
:102CE000834D00E020BF6F68002FFBD0002B03D185
:102CF000076910239F430761784882606960A07963
:102D000000280CD007F0D8F9054607F01DF97B4ADA
:102D1000002D02D0A260E06001E0E260A060002E21
:102D200001D100F0B1F8F8BD10B5044607F0CAF9BA
:102D3000002805D068490120C8704A78521C4A70A2
:102D40002046FFF770FF10BDF8B5694FB868002541
:102D5000012802D1BD6007F06DF97868012800D123
:102D60007D60386801265C4C012814D13D60607993
:102D7000002803D0002007F05DF965712078002855
:102D800009D007F099F9002805D05948C038866362
:102D900000060661A670386901282CD13D6100F05B
:102DA00068F8012080074661A079002815D007F057
:102DB00083F9009007F0C8F80099002901D0E16874
:102DC00000E0A168411A022901DA8A1C13DC00998B
:102DD000002901D0E06000E0A060FFF7C9FE07F025
:102DE0006BF9002806D04248C038866300060661A9
:102DF000A67000E02670F868012819D100F039F8B3
:102E000000F037F800F035F8A078002804D1FF2052
:102E100033A1053007F027FBFD60A5702570FFF793
:102E2000D0FE06F050FC002802D03148C038C663FE
:102E3000F8BD10B5284CE078002801D107F038F92A
:102E400001208107886100F014F8A07800280BD0D9
:102E5000274CE068002803D107F043F90028F8D197
:102E60000020E06000F005F800201C49C0438860A5
:102E700010BD08B55020694608806A461088411E7A
:102E800011800028F9D108BDF8B5144819278760CA
:102E9000174900200860C86007F00EF9BD0701243B
:102EA0000D4E002805D01248C03884632C61B470E0
:102EB00000E03470FFF75CFE084847600D49307948
:102EC0008863FFF7D6FFAC61FFF7D3FF0849002006
:102ED00008616C61F8BD000018000020000300408C
:102EE0007372635C736F635F636C6F636B2E6300FD
:102EF000000100400005004000ED00E0FFFFFF7F03
:102F000030B5EFF31081CC07E40F72B61D4A11699A
:102F100010230D461D431561002C00D162B61A4DD9
:102F2000C406E40E0120A0402C6804420DD0C8065F
:102F30000AD4EFF31080C007C00F72B6116999432D
:102F40001161002800D162B630BD20BF40BF20BF54
:102F5000EAE70E4908784A78401CC0B2904200D097
:102F600008707047084A094820BF40BF20BF417819
:102F7000037843701368002B02D103788B42F3D09F
:102F80000020704700ED00E000E200E02800002093
:102F9000FEB5F54C07466068FF213E01815521785A
:102FA000FF2913D00901083141583246491E083221
:102FB00009020192090A805800F0CCF9002802D0D9
:102FC0002478254615E06168207888552770FEBD75
:102FD000E5484268019811582801009008301058BF
:102FE00000F0B8F9002806D1DF482C464168009867
:102FF0000D5CFF2DECD1DC4821014068855547541C
:10300000FEBD70B5D84A04460020157A53680AE020
:103010000201561C9E5DA64203D10C329A588A4288
:1030200004D0401CC0B28542F2D8FF2070BDF8B574
:10303000CD4F3E78FFF78DFA0146FF2E71D0340157
:10304000254678680835405900F084F902280CD9E3
:1030500078684059FFF770FAFFF77BFA0146786805
:10306000405900F077F902285BD8BF494868025DF3
:103070000A70A11C425C002A0CD0521E42544159D5
:103080000122D20589180902090A41513046FFF789
:103090007FFF30E0631CC25C0092221D9446825880
:1030A000002A10D001239B029A420FD99205920D5B
:1030B00043595703DB191B021B0A43516346C3588C
:1030C0009A1A920A09E0FF21C1540AE043595203B7
:1030D0009A181202120A4251002242543046FFF757
:1030E00057FFA1480C344168C26800980959800014
:1030F0001258009890479C4C2078FF2811D000016E
:10310000616808300858FFF717FAFFF722FA0146FE
:103110002078626800010830105800F01BF902287E
:1031200086D3F8BDF8B51C4615460E460746FF2B5C
:1031300003D38EA1D12007F096F98B48FF21C760F9
:10314000456004720674017000224270104604E06B
:103150000201521C401CA954C0B2A042F8D3F8BDD1
:1031600070B5814C06466578207C854203D37FA1EB
:10317000E42007F078F9E068A90046506078401C28
:103180006070284670BDFFB581B01D46FF24FFF773
:10319000E0F9754F064679780198814203D873A10A
:1031A000F22007F060F970480021037A406810E0CF
:1031B0000A019446521C825CFF2A25D0019FBA4224
:1031C00005D162460C328758029A97421ED0491C9C
:1031D000C9B28B42ECD8FF2C18D021014A1C019BAC
:1031E00083540B460C33029AC250039B5E4F00225D
:1031F000012B0ED00B1DC25001239B029D4216D9FC
:10320000AA05920D08D008E00C46E0E7FF2005B0C3
:10321000F0BD0B1DC550EFE71A4653039B190E4630
:103220001B0208361B0AAA1A8351920A09E0002DD4
:1032300000D101256B039B191D022D0A0B46083393
:10324000C550891C42543D463E782046FFF7A0FEFB
:103250002878B04214D00001696808300858FFF798
:103260006BF9FFF776F929786A6809010831525835
:103270000146104600F06EF8022801D2FFF7D7FE93
:103280000198C4E770B50C460546FFF762F906469B
:1032900021462846FFF7B5FEFF2814D0324D040121
:1032A0002046696808300858314600F053F801217B
:1032B000090340186968A41C095D400B002901D06E
:1032C0008902081870BD002070BDF3B581B00746B3
:1032D0000299FFF796FE0246FF282AD0224E357843
:1032E00071682846044604E0944205D0254623012F
:1032F000CC5CFF2CF8D11CE0FF2C1AD0A5421CD1CD
:103300000001085C3070FF2815D000010830085813
:10331000FFF712F9FFF71DF90146307872680001D6
:103320000830105800F016F8022806D2FFF77FFE8A
:1033300003E00020FEBDFFF707F938460299FFF7CA
:10334000A1FF22017168FF23541C0B558A5C2B01DD
:10335000CA54FEBD401A00020121000AC905884274
:1033600000D9002070470000AC0300207372635C3A
:10337000736F635F74696D65722E6300F8B5044600
:10338000800700250126002804DA5A48C563C66371
:1033900002208443E00404D55748C563C663801403
:1033A0008443600003D55548456080058443E005AB
:1033B00004D55348C563C66380158443A00404D56F
:1033C0005048C563C6634014844360042104C00FA1
:1033D000C90F884203D04CA1612007F044F82004B3
:1033E000800F0AD04D49CD634D48C563C563CE6398
:1033F000C663C66303208003844320050AD5494F72
:10340000FD632F20FCF7CEFEFE632F20FCF7CAFEE3
:10341000F8148443002C03DA06F03EFD64006408CF
:103420004148044203D038A1902007F01CF8F8BDB1
:10343000F0B500210A46FF230446CC40E4072AD019
:103440004CB2E606F60E0125B540384E3560384ED2
:103450003560002C11DA25072D0F083DAE08354DDB
:10346000B6007719FD69A407E60E1C46B440A543D3
:103470001446B4402543FD610DE0A6082E4DB6006C
:1034800076193568A407E70E1C46BC40A5431446D0
:10349000BC4025433560491C2029CDD3F0BD70B513
:1034A000264C0D462060FFF769FF2068FFF7C0FF3C
:1034B0002846FFF739FC06F03DFC06F098F906F0C7
:1034C000EBFC06F0ECF800F03BF800F0CDF870BD36
:1034D00010B51A4C2068FFF751FF2068FFF7A8FFCE
:1034E00006F0DAFCFFF7A5FC0020206010BD1348B1
:1034F00000687047C01F0040C0CF004000E5014099
:10350000C08F0040C0DF00407372635C736F635F05
:10351000636F6E6669672E6300000000C0EF0040B5
:10352000C0FF0040C0BF0040FEFF0FFC80E100E094
:1035300080E200E000ED00E000E400E02C0000206C
:1035400001203E49400608603D4908603D490A683F
:10355000FF231B029A4383121A430A6037498039BA
:103560000860704710B502460420374904E0C300E4
:103570005B181B79002B0AD00346401EC0B2002BFB
:10358000F5D132A1482006F06EFFFF2010BDC30028
:10359000CA50002259184A718A7101220A7110BD5D
:1035A000294A0021C00080180171704710B50446F7
:1035B000042803D325A1572006F055FF2248E10037
:1035C0000C182079012803D020A1582006F04BFFC9
:1035D0006079A179401CC0B2814200D060710120A5
:1035E000164940068031086010BD70B51548006866
:1035F000800B022803D015A1722006F034FF124D73
:10360000184C03262078C10048190279012A07D1F5
:10361000427983799A4203D042798271685880470F
:103620002078401CC0B22070042801D300202070F4
:103630003046761EF6B20028E4D170BD80E100E08D
:1036400080E200E018E400E0C00300207372635CD5
:10365000736F635F7369676E616C6C696E672E630D
:103660000000000030000020A3490020087088708E
:10367000A24908707047F8B59F4C0E4661788842A1
:1036800003D09FA15A2006F0EEFE0325330007F079
:1036900004F8095F063C3C5F5F5F5F565F0020787F
:1036A000022803D096A15E2006F0DDFE2570A078EA
:1036B000022802D0012804D020E0A06806F0DAFC3D
:1036C0001CE0934F01207860924E30680028FCD0B7
:1036D00000222569E168A06807E00B680360336891
:1036E000002BFCD0001D091D521CAA42F5D3E1603D
:1036F000A0600020786030680028FCD00020A07016
:10370000FDF7DCFE04202070F8BD2078022803D0ED
:103710007BA1782006F0A7FE60687849401C6060B5
:10372000032801D84D7003E0062806D8022048700F
:1037300072496078FEF7C0FAF8BD032003E0A07874
:103740000028FAD1022006F075FC00F0CBF8F8BD95
:103750006BA1A02006F087FEF8BD70B50546664C4B
:10376000002060602078012803D065A1A72006F022
:103770007AFE6249022008738D6003224A7020702D
:103780006078FEF799FA70BD10B55B4CA078002800
:1037900002D12078002801D0112010BD5E48FDF72D
:1037A000CCFE60706078002803D0012020700020DB
:1037B00010BD032010BD10B50124020B64040121CB
:1037C000564BA04202D29140186802E0203A586855
:1037D0009140084000D0012010BDF8B50E46910080
:1037E00004460F1915463F1F009106F054FC00993E
:1037F00080028919091FB14201D2012100E0002194
:10380000002D03D0FF220132954201D90920F8BDD5
:10381000434A94421DD3A7421BD3844201D287421C
:1038200003D3404820187C2803D820463043800723
:1038300001D01020F8BD96420BD3002909D12046B3
:10384000FFF7B9FF002804D13846FFF7B4FF00287E
:1038500001D00F20F8BDFFF797FF0028FAD12648C6
:103860000121C6600561846081702846312148438A
:103870001430FFF772FF0020F8BD10B50446284849
:10388000800A84420BD306F006FCA04201D8102027
:1038900010BDA4022046FFF78EFF002801D00F20A4
:1038A00010BDFFF771FF0028FAD113480221846090
:1038B00081701D48FFF751FF002010BD1848010B13
:1038C00001208840401E704700B50B460246FFF7B6
:1038D000F5FF104201D00F2000BD10480260436088
:1038E000002000BD10B5044C6078FDF77AFE002082
:1038F0002070A07010BD000034000020E003002004
:103900007372635C736F635F666C6173682E6300D0
:1039100000E5014000E40140773600000006004069
:1039200000C0000080EFFFEF10540000E4490020C9
:103930004870087088704860E2490873704710B595
:10394000E148826A81158A43DD498B691A438262A4
:10395000826A0223C9699A430A438262FDF7AEFD77
:1039600010BD002815D001784A0802D04908012965
:103970000ED18168D54A6439914209D24068D44950
:10398000884205D8CE494978012903D1002801D0C1
:10399000002070470120704770B50446FEF746FAD4
:1039A0000068002803D0CBA1802006F05CFD012632
:1039B000C34D002C06D0207800282CD0012828D018
:1039C000022801D0EE7024E02878002821D1606818
:1039D000FFF7C7FF0028F5D060680078C00700D067
:1039E0000220B84E3070606880689630B0606068C1
:1039F0004168E868FEF7B7F87060606803240078F3
:103A00004008002808D07470AE49A878FEF754F931
:103A10006C70FFF794FF70BD02207070F4E7F8B58A
:103A2000A74C0D46A178884203D0AAA1BF2006F07A
:103A30001AFD284600270526A24D030006F02DFE9C
:103A400009061135587F8997B8A2B8006078032815
:103A500006D06078022803D09EA1C32006F003FDA3
:103A6000F8BD6078032806D06078022803D099A1B9
:103A7000C72006F0F8FC04206070E770207800286A
:103A800002D0FDF71BFDF8BDA8689638FEF7BCFC18
:103A90006868E0608C48816A82151140A161806A83
:103AA00002210840E06100205CE06078032806D035
:103AB0006078022803D087A1E22006F0D4FC2078A9
:103AC000002802D000F0EFF8F8BD6078032802D09B
:103AD0002069410020E004202DE07A49A078FEF71B
:103AE000EBF8F8BD042006F0A5FA01206070F8BDDF
:103AF0006078032807D06078022804D0FF2075A1E1
:103B0000043006F0B0FC20780028DBD16078032870
:103B100010D06868A06076492161A068FEF723F89C
:103B2000686069686069FEF7DDFC68496331884256
:103B3000D8DCD2E7052006F07DFA6670F8BD607823
:103B4000042804D0FF2063A1263006F08CFC02205C
:103B500008E06078042804D0FF205EA12B3006F036
:103B600082FC012061688847FFF716FFF8BD607886
:103B7000042804D0FF2057A1303006F074FCFFF772
:103B8000DEFEF8BD6078042804D0FF2051A1353056
:103B900006F069FC2078002894D1E078002805D050
:103BA000062006F047FA6670E770F8BD0720C2E706
:103BB000FF2048A14B3051E770B5050005D0404CBF
:103BC0006078002803D0112070BD102070BD4948D6
:103BD000FDF7B3FCA070A078002804D06560012038
:103BE0006070002070BD032070BD10B534480178AE
:103BF000002901D0112010BD417800290BD0417857
:103C000005290AD04178012907D0012101704078A7
:103C1000052802D003E00F2010BD00F044F800207A
:103C200010BD70B5264C06466078052804D0607833
:103C3000012801D00F2070BD002E25D03046FFF79F
:103C400090FE002822D060781E4D012820D0716897
:103C5000E068FDF788FF6860B0689630A86030784B
:103C6000C00700D0032028703078400817D0032008
:103C700068706078052814D0022060701149A0781F
:103C8000FEF71AF8002070BD102070BD072070BD2F
:103C9000FDF7C2FC6061A06015492161D9E70220EF
:103CA000E6E70320E9E710B5054CA078FDF799FC9D
:103CB000082006F0BFF900206070207010BD0000E1
:103CC00048000020F0030020000500403D86010070
:103CD000FF1FA1077372635C736F635F7261646936
:103CE0006F5F74696D65736C6F742E630000000004
:103CF000240800001F3A00008107C90E002808DAD6
:103D00000007000F083880082C4A80008018C0691E
:103D100004E080082A4A800080180068C8408009B2
:103D2000704710B50D20FFF7E7FFC4B20420C04371
:103D3000FFF7E2FFC0B2844203D022A11B2006F0AD
:103D400092FB10BD0121244A48031060234B00223E
:103D50001A60234A5160234A1060234A11601E49A9
:103D600080390860704701211B4A480310601E4AD1
:103D700051601A4A002111601A490860704710B555
:103D800016490868012804D00EA15B2006F06BFBE1
:103D900010BD164880680022C0B20A6005F0E9FD37
:103DA00010BD10B50D4801680029FCD0FFF7E7FFF2
:103DB00001200C494003086010BD000000ED00E048
:103DC00000E400E07372635C736F635F68616C5F53
:103DD000726E672E6300000080E100E000D10040B9
:103DE00000D3004080E200E000D0004000D5004059
:103DF000F8B5FF490120C860FE4C00256561FE4F03
:103E0000FE4B7968CA781202D218A261A2694306F1
:103E10009A43A261FA4B03221A60FA4A1561D560EF
:103E200055601560F84AA263020796690346B343DA
:103E30001B029B1C6363F54BE3638B79E360206398
:103E4000E562966903469269B343904383409807BD
:103E5000800F2061C87A0E1D002807D0CD72606ADD
:103E6000000A00026062E069E56112E0606A000A2F
:103E700000026062707805F047FB616A0843606287
:103E8000E069E561307805F03FFBE1690006084331
:103E9000E06178688078A060DD4910204860DD48E6
:103EA0000168FF22120291430160DB490220086091
:103EB000CF48C560F8BDF8B50A46CF49FF250135A2
:103EC000D64F012600244868092A72D213007B4489
:103ED0001B79DB189F44043EFDFCC0FBB46DFA0067
:103EE0000C46097802291AD02178032917D0407886
:103EF000CB4F012815D001F06AF8FFF779FF00F0E9
:103F000063FFBC494860FDF78CFFC64A391F086053
:103F10003A60C54845606068006AFEF775FA6670E9
:103F2000F8BD01F0C9F8FFF763FF00F04BFFB1499E
:103F30004860FDF776FFBE49BC4A08603A60BA485F
:103F40004560BE4ABB49BC4B1160111D0B60411559
:103F50004160E0E7A8494978002921D0A6490A78BC
:103F6000022A27D00A78032A24D03D60B4490C6085
:103F7000B44AC3691360B54BB34A1960191D0A608E
:103F80000A15A9494A604178012953D0012141729B
:103F9000007AC00701D0FDF74BF897484470F8BD90
:103FA000954D407801F096F9A878FFF7FFFA2C704C
:103FB0003DE0F0E04078012823D09B488560A4498B
:103FC0000C614C61011581609948046144618C4821
:103FD0000460022038608E4AC11E916089490C61DC
:103FE000904A16610A69002AFCD00C61CC604C60D2
:103FF0008C600C60974908607F480078032803D0E4
:1040000008E000F08CFAF7E701F06CF97A48807864
:10401000FFF7CCFA01209049000488608F48466081
:10402000874804603D608B48056073480470FDF765
:1040300045FAB2E702214172007A8007ABD4ACE7BF
:104040000120854900048860844846607C480460FB
:104050003D60804805606CE04078012846D001F062
:104060007AF8714885607A490C614C61011581606C
:104070006F48046144616248046002203860644A09
:10408000C11E91605F490C61664A16610A69002A87
:10409000FCD00C61CC604C608C600C606D49086099
:1040A00055480178022938D007468078FFF77EFA14
:1040B0007968002048723C7001206749000448601C
:1040C0006648C6605F48B921016003E047E048E008
:1040D00040E031E05A48046061480168090A090279
:1040E00001605C4805604C480560F8BD4548416882
:1040F000012906D1C068012803D15A480068012867
:1041000004D001F028F800F00AFAC9E700F05EFFD9
:1041100001F021F800F003FAC2E701214E4A090438
:1041200091604E494E6046490C603D6049490D60C2
:104130000470FDF7C3F9F8BD0D460978022901D1D5
:104140002C70F8BD407801F0C5F8A878FFF72EFA7A
:104150002C70F8BD0D4609780229F3D1F0E70C70F8
:10416000F8BD37480268002AFAD0046009780129AE
:1041700004D034480168B9310160F8BD0121364AE4
:104180000904916035494E6004603D603148056026
:10419000FDF794F9F8BD34A1384806F064F9F8BD8C
:1041A00070B5154D012668601C4902200860294938
:1041B0000860184900240A68FF231B029A430A601A
:1041C000154908602E48AC60FDF7B7F969680870BA
:1041D000CC710E724C728C72CC722C7029486C703F
:1041E000C16AC9075CD12849026B4A62426B4DE043
:1041F000000A004000150040680000201E00010178
:10420000001200400011004021100000FFFF0000DC
:104210000013004000E400E000E100E080E100E085
:1042200054F501400010004000F50140041000402A
:1042300050F50140041100401410004058F50140B1
:1042400040810040408500401010004060F5014072
:1042500040F5014080E200E0008300400080004023
:1042600008E400E0001400407372635C6C6F7765D3
:1042700072737461636B2E63000000008E03000094
:10428000B73E000080000010001700408A62826B79
:10429000CA62C06B0863B848CA0500681043486327
:1042A00070BDB6484068C179002905D010B500211D
:1042B000C171FEF786FC10BD704710B5AF482422CF
:1042C0004168525C002A0AD00A78002A07D0027896
:1042D000002A04D0022202700278002AFCD172B6B1
:1042E000C879002803D00020C871FEF76AFC62B6C6
:1042F00010BDA24824224168525C002A07D00978E8
:10430000002904D00178002901D0032101707047F1
:1043100010B59A4CA068002806D19949994806F032
:10432000A2F8A068002802D0A1680020884710BD2C
:10433000002807D010B5914CA0609348FFF712F900
:10434000A07010BD704770B50C46054600F03CFDEE
:104350002246294605F0D9FE70BD70B5874C15463A
:1043600062680023537010615173137601F0BFFC33
:104370000126002806D060687D21C90006736918EF
:10438000416105E06068032101738049691841615A
:104390006168CD6148696438086208780C31FDF7BE
:1043A0008BFC267070BD70B5744C15466268012692
:1043B0005670106151730020107601F098FC0028AF
:1043C00006D060687D21C90006736918416105E067
:1043D0006068032101736D49691841616168CD61AD
:1043E00048696438086208780C31FDF765FC26706E
:1043F00070BD10B561488078FFF7D8F810BD10B5D2
:10440000FDF7B1FB10BD10B5FDF706F910BD5B4916
:104410004968887170475949496888707047574999
:1044200049688880704755494968C8707047534942
:1044300001204968C872704710B5504C6068807A96
:10444000002812D1FEF794FB5149012008606268F0
:1044500050499379CB6000230B6193788B604E4B6E
:10446000032119604D490860907210BDF8B5434FA3
:104470007868807A002824D0454A002414600121FD
:10448000474802250560474B40179860464804613D
:10449000424B19610669002EFCD00461C46044607F
:1044A00084600460414E3560146004613A4A1460CF
:1044B000196101690029FCD00461FEF782FB78686C
:1044C0008472F8BD3848C069002803D0324880683B
:1044D000404240B2704729484068C179002905D15F
:1044E00010B50121C171FEF743FB10BD7047234990
:1044F00049680872704721484068007A70471F4831
:104500004068407A012800D0002070471B4840686E
:10451000407A022801D0002070470120704770B413
:104520001E4C0121A16120480022C261204B45158B
:104530009D60204D2A616A6185159D601E4D2A612E
:104540006A6105159D601D4B1A615A61104B1A6016
:10455000134D02232B60134E8D1EB5600261216145
:1045600001690029FCD00261C26042608260026081
:104570000E48036070BC7047C00000106800002047
:10458000684200001104000011430000B80B000055
:10459000001200400015004040150040001000408F
:1045A00080E100E0001300400011004080E200E0E4
:1045B00000F5014048F5014040F5014050F501404B
:1045C000FC49095CC90701D0FB4900E0FB49085CD4
:1045D000704710B5FA4A03211078030721D5F72355
:1045E00018401070F74AF34BD0791B5CDB0701D001
:1045F000F14B00E0F14B185C002804D0012804D0F6
:10460000022803D101E0022100E00121EE48837974
:104610002038006E002B05D0127ED200E132FFF769
:104620009CFE10BDD28DE94B5A43520AFFF7BBFEE8
:1046300010BD10B5E3488079801E11282DD20300EB
:104640007B441B79DB189F440808080828280829A0
:104650002828294A282828080800DA4C608FA18FCA
:10466000626E401AD94980B24843410AC005C00D64
:1046700080186066820500D5491CC005C00D6066C3
:10468000E06DFFF7BCFEA0652066CF480021817178
:104690000830017808221143017010BDC94C608FA9
:1046A000A18F626E401AC94980B24843410AC005D1
:1046B000C00D80186066820500D5491CC005C00D7C
:1046C0006066E06DFFF79BFEA0652066BE48012195
:1046D00081710830017808221143017010BDB94C76
:1046E000608FA18F626E401AB84980B24843410A78
:1046F000C005C00D80186066820500D5491CC00544
:10470000C00D6066E06DFFF77AFEA06510BDAD4894
:10471000AF49C079095C490702D5A84A0121115463
:104720007047012A00DC0122491E401ED30703D036
:10473000491C0B78401C0370521007D04B78437013
:10474000891C801C0B780370521EF7D17047C27B06
:104750000F21521CC27304E0491EC9B2425C521CB4
:104760004254425C002A01D10029F5D17047002A49
:104770004ED0FFB5974883B001461F311030154623
:1047800001910090102D04D91024924805F025FBCA
:1047900005E02C468F4805F020FB002C22D0039921
:1047A0000498491E401E019AE30706D0491C521C7A
:1047B0000B7816787340401C037063080CD04E7859
:1047C0005778891C7E404670921C0E781778801CA2
:1047D0007E4006705B1EF2D1039800190390049886
:1047E0000019049000990F20CA7B521CCA7304E080
:1047F000401EC0B20A5C521C0A540A5C002A01D155
:104800000028F5D1281B05062D0EBBD107B0F0BD41
:104810007047F8B56A486B4C00786F4F8107E079B4
:104820000D225043C01900296DDB6C496D4D09788C
:104830008A076B490E780CD16B490978490708D56E
:10484000F10606D52978CA0903D1A222114329709D
:1048500001715C4A2978137EC9075A1F002937D095
:104860003007624E32D562499B1FA164082B09DDD7
:10487000DAB20023891DB01DFFF779FFA16C7079B2
:10488000487105E0D2B20023491D701DFFF76FFF8C
:10489000E0790D2250435649C01902780A704278D7
:1048A0004A7082788A70C078C870A16C30790871BB
:1048B0002878000704D508224E494F48FFF731FFFA
:1048C0004E488022017811430170F8BDA664F8BDFE
:1048D000310718D5464ED2B2401D0023711DA66483
:1048E000FFF745FFE0790D214843C1190522A06C6F
:1048F000FFF717FF28780007E9D50822711D3E4809
:10490000FFF70FFFF8BDA064F8BD082A01D92720E2
:104910007047F8B504463A489C4602783948530631
:1049200003D5002C04D13120F8BD035D9B0711D0C5
:104930003448005DC3060FD4334B1B5D9B0609D47E
:10494000430607D4520607D40A0605D58007800F10
:10495000022801D21520F8BDA02001400220014309
:10496000194E1848F471C2790D46133000210078B1
:10497000944208D1002806D0430704D4234909787B
:10498000C90960D10121224B1F78BB0644D5DF2322
:104990001F401F4B94421F7003D1002901D10028F2
:1049A00044D11C4801788906890E0170FF20F071FE
:1049B0002120F8BD98010020A0010020C0010020A6
:1049C0009C0000207400002094000020093D00009D
:1049D000780100202E06002000040020870000201F
:1049E0007E000020850000207F000020A60400201B
:1049F000680400206D0400203E0100208200002099
:104A000081000020F6000020FE0000208800002029
:104A100083000020840000200D2327465F43F84BCD
:104A2000FB181B791B0601D500290CD0F54F9442C9
:104A300011D1F54A00290AD0F449F7230D70F44941
:104A40001840087006E0FF20F0711F20F8BD1078B4
:104A50002843107015780D2021464143E84808226C
:104A600008180571401D6146FFF75BFEF879844226
:104A70000CD1E7490978002908D1290606D5E5496E
:104A8000095C490702D5E44A01211154E348DF22B9
:104A9000015D11400155FF21F171E149095D890670
:104AA00011D5E0490A5D93079B0F012B05D1002327
:104AB000035590088000801C0855DB48007880066C
:104AC00001D404F095FB5020F8BD81790379427937
:104AD000481E934201D1C0B270479A1A891A014008
:104AE000491EC8B27047F0B5D04D06462B469B799B
:104AF00028796F795C1EB84201D1E4B204E0C71B8B
:104B0000DF1B27407F1EFCB2D708BC422AD38C464D
:104B1000181AC1B2C54814460079C54AC0008018A9
:104B20008F4202D8224661460AE0C9060D0E2A4687
:104B30006146FFF7F6FD601BC2B260464119BC48F2
:104B4000FFF7EFFDB00604D5BA4880220178114383
:104B50000170B64801798279C919521E114001715C
:104B60005020F0BD2220F0BDF8B5B34C8227A07ACA
:104B7000012813D1B14DA88800280FD0A14E306F65
:104B8000002804D001210170A88800285CD0207B77
:104B9000810706D5A988082902D002E02120F8BDA6
:104BA000A027C00721D1E07A0D214843944940183D
:104BB0000079000614D508223846F16EFFF793FFFE
:104BC000502859D1F06E0830F066A8880838A880BF
:104BD000B80636D59748802201781143017030E03D
:104BE0009448202102780A43027008223946E07A6C
:104BF000F36EFFF78AFE5028D1D1F06E0830F066D0
:104C0000A8880838A880227BD0071AD08C4803785F
:104C1000590608D5411D097800291DD0490702D43D
:104C200020210B430370E07A6072804900200871F4
:104C30004871804801784906490E017050084000CB
:104C40002073A8880028A2D10220A072306F00280B
:104C50000ED0002101700FE010210B430370794941
:104C6000002008707077F08EB086F07FB077DAE7BA
:104C70001121607A00F047F85020F8BD10B56E4A57
:104C8000D37A984215D1052907D0062905D0852960
:104C90000FD1FFF769FF00210BE0FF23674CD372B0
:104CA0000020A0809072403C246F002C00D0207027
:104CB0005372084610BD10B45A4C634B634A09291D
:104CC0000CD0022908D1215CC90605D45249095CDF
:104CD000002910D04000135210BC7047215CC90657
:104CE00002D541005A4A00E041005352594AFE2180
:104CF000115410BC70474000574B115A1B5AC91829
:104D0000115210BC7047F8B50446464B4E4A4F4806
:104D1000092902D002290DD01CE01B5DDB0603D55A
:104D20004B4B60001A5201E06300C252494BFE2215
:104D30001A550FE01B5DDB060CD4374D2B5D002BA5
:104D400002D06300C25205E06200434D835AAD5A5F
:104D50005B19835238480027C27A2A4D944213D1F6
:104D6000052907D0062905D085290DD1FFF7FCFEBE
:104D7000002109E0FF22314BC2729F8087722B6FA6
:104D8000002B00D01F7042722A4A13785807C00FB8
:104D9000401E084215D06878461CF6B26E70102E80
:104DA00000D36F706E782D78AE4203D104210B438F
:104DB0001370352142002948845410184170FCF7C3
:104DC00037F9F8BD264870472648704710B5FFF7F9
:104DD00074FAFFF74BFB10BD10B50446080601D569
:104DE000104604E0052900D304211F48405CFFF76A
:104DF0000EFB2046FFF70FFBFFF71EFB10BD000068
:104E0000000400207400002085000020880000209D
:104E10008700002078010020C0010020EE00002063
:104E2000FE000020F600002081000020700100201C
:104E3000060700208300002094000020B40000201A
:104E40008200002090000020FFFF0000B607002035
:104E5000A6070020B00100209A050020AA05002026
:104E6000E204002086040020BFA6000010B5FA4B23
:104E70000C0601D51A5405E0052900D30421F74A90
:104E8000515C1954F649C979884202D1185CFFF780
:104E9000BEFA10BDF34A1154D23AD279904204D1ED
:104EA00010B50846FFF7B7FA10BD7047ED49085C2A
:104EB0007047ED4A40001152704730B4EB4CB022BD
:104EC0002254EB4A135C5B065B0E1354002907D097
:104ED00027258900ED43691A215480210B4313547F
:104EE00030BC70477047F8B5DD4CE24DA76E2E8898
:104EF000FFF789FA01463846FDF7F4FADE49002843
:104F000005DA4042400205F08CF9301A03E0400215
:104F100005F087F9801980B2D849E08709788907B8
:104F200004D0D349E279895CC9064ED4D449102310
:104F30000A78D44E1A430A70618F227E081A411EE5
:104F400009044B0C11460D39C910491CC9B20004A3
:104F50002171000C03D0B04201D8C81820710D2A6D
:104F60001CD9C948C949012A00DC0122401E491E3A
:104F7000D30705D0491C43780F787B404370401C11
:104F800052100BD043784F78891C7B404370837854
:104F90000F787B408370801C521EF3D1FFF792FA8A
:104FA000BB49E2798854A07912280ED12988E28D74
:104FB000E08F8918091A89B2B14202D900212186ED
:104FC00000E02186608705202071F8BD8BE7F8B5E9
:104FD000FFF71FFCAA4EF72130780840307072B6F8
:104FE000FFF779FA62B6AB489D4C00782546C007BA
:104FF0002035002807D02878062804D2A649085C66
:10500000FFF709FA09E030784106964801D50078A3
:1050100001E0E179405CFFF7FEF9207EFFF703FA3B
:105020009E489F49007808719E490978890701D4F4
:10503000A16C0871C00734D0207E84460D2826D983
:1050400099480078C009A06C1DD066468F4A012E91
:1050500000DC0126401E521EF10705D0521C437889
:1050600017787B404370401C731010D047785178FC
:10507000921C4F404770877811784F408770801C92
:105080005B1EF3D103E00179ED22514001718648A6
:1050900001784906490E01706146A06CFFF753F98B
:1050A00003E00D21A06CFFF74EF9E879E179884221
:1050B00001D1FFF7BCF9F8BD70B5714CF72120782C
:1050C0000840207072B6FFF706FA62B67148644D68
:1050D0000078C00708D075480078062804D26E49C9
:1050E000085CFFF798F909E0207841065D4801D592
:1050F000007801E0E979405CFFF78DF9287EFFF741
:1051000092F970BD10B456495548CA7943790020C8
:10511000674C5100092B09D0032B0ED0042B14D05F
:10512000122B01D16349885410BC7047624B9A5CC2
:105130005206F9D5605210BC7047514A1278D20617
:10514000F9D55E4A505210BC70475D4B9A5CD2074D
:10515000F0D010BC704710B441494148CA79437936
:105160000020534C5100092B09D0032B0ED0042BE7
:1051700014D0122B01D14F49885410BC70474E4BAC
:105180009A5C5206F9D5605210BC70473C4A1278BE
:10519000D206F9D5494A505210BC7047484B9A5C28
:1051A000D207F0D010BC7047F0B42D48454F457978
:1051B000C0793F4B424901263E4C4200092D09D09F
:1051C000032D11D0042D14D002220C2D21D0052D39
:1051D0001FD039E0245C002C01D09F5204E03A4CEF
:1051E0009D5AA45A2C199C520A5C32430A54F0BCB2
:1051F0007047095CC907FAD1205C002802D09F5291
:10520000F0BC70473048995A805A08189852F0BC40
:1052100070471A4B1B789B0716D02C49095C49072D
:10522000F5D5224900254B7B5B1CDBB24B73275C19
:10523000002F01D0225404E0254A125C9A42E6D89D
:1052400026544D73F0BC7047122DFBD10B5C1343F9
:105250000B54F0BC704700004E010020BFA60000B8
:1052600074000020460100201E0600205E01002080
:10527000EE000020B4000020093D0000870000205F
:105280008100002000800000E2040020C4A600008D
:105290005601002090000020E8000020850000203A
:1052A000A60400209C000020820000209400002022
:1052B000A6070020C0010020F6000020B60700204D
:1052C000A8010020FFFF00009A05002078010020BF
:1052D0009001002010B5002801D1FFF79AFAFFF7DE
:1052E00063FF10BDFB49102088717047F3B5CF787C
:1052F0008B788FB05F40CF700E797E400E7109962B
:105300004D79B44675404D710C9588796840887127
:10531000CA794240CA714C7854404C7008940E7857
:10532000A64666400E70EF240A9626408F246640FB
:1053300000967446BE26344036267440009E3443A0
:10534000A646EC241E46264020246640744626438A
:10535000B646BC06A40E1A26744076463443A646CA
:105360006646D72426404724664074462643DB24FD
:1053700025401124654035437926044634405026A3
:1053800074402C43F72516462E4093256E40264345
:105390000F9C6500002E04D0D049CF48485311B06F
:1053A000F0BD0A9C10263440A446089E41242640A5
:1053B00064462643B446099C282634406646344356
:1053C00086263040204313242340BC09A4010870E2
:1053D0001C430C9B242633402343082422401A43B9
:1053E0004A7011020143BD48415311B0F0BD7047EE
:1053F000704710B504F097FA10BD10B5102104F0F5
:1054000092FA10BD00B501461022B548FFF789F9A0
:1054100000BD00B501461022B248FFF782F900BD79
:1054200030B50D460446002A13D0012A10D121467A
:1054300003220D312846FFF774F90A22E11CE81C0B
:10544000FFF76FF92846032221460D30FFF769F96F
:1054500030BD214604220C312846FFF762F90822AC
:10546000211D281DFFF75DF90422284621460C3036
:10547000ECE79E499C4808600020087148711022A2
:105480008A719B49FF239B4A4B725080CB7290805C
:10549000887220390867704797490B5C990601D5D7
:1054A0001520704770B5954D2C5CA107890F012917
:1054B00003D193490A78510601D5152070BD914951
:1054C0000E5CF60901D0A02600E020260E54A108AB
:1054D0008900891C29548C490C5C640864000C54B4
:1054E0008A4C002140002152900601D403F080FE36
:1054F000002070BDF3B581B07D49684602794B7AD2
:1055000040799A4205D1382801D0392801D1FF20AD
:10551000487279480024805C400700285FDA0198CF
:105520000090684600787549095CCA0678496A4661
:105530001FD55378774A052B18D0062B02D0072B9E
:105540004DD112E04500744E535B765B9E19B6B2A6
:1055500056539E4243D80A5C704BD21CD2B20A54B6
:105560001B5C9A423BD90C5414E00C54400014527A
:1055700035E05278012A0AD0072A1ED0082A09D01D
:10558000802A2CD10A5C062A29D20C5427E00A5C16
:10559000521C0A54624F4100624E43184D4A3D5C12
:1055A000F15CD2798D420ED19919497839549042E3
:1055B00015D10846FEF72FFF11E00A5C062AE4D257
:1055C000FFF76AFF0BE09B195E78B54204D199782A
:1055D00039549042EDD002E039549042E9D001981C
:1055E000009068464078411E0A46092906D80121E4
:1055F0009140404A5288114200D0FF2069464871CC
:10560000FF2801D102980470888803B0F0BD0179A9
:1056100042798079891A401E0140C8B27047F8B5B6
:10562000324F0E460446387979790022401AB9790A
:105630006270491E0840C1B28322A01C22708E42B3
:105640000ED9394A1278D2091CD001226270017039
:10565000451C0E4607220021284603F028FFE81DBE
:105660000546F006060E2148F308817940799C46EC
:10567000091ACAB21C49934206D8C00041183246E2
:1056800028460DE00020F8BDD206C000170E4118D4
:105690003A462846FFF745F8F01BC2B2E81912490E
:1056A000FFF73FF81148204B427981796244491E47
:1056B0000A40D2B242711B78DB0909D00079801A06
:1056C00008400006000E03D12078202108432070F6
:1056D0000120F8BD740000205B2500001E0600209C
:1056E0002E0600203E060020060700207001002044
:1056F00094000020B4000020FE000020F6000020EE
:1057000081000020EE000020260100207A05002004
:10571000660100205E0600209A0500201E01002080
:10572000460100206E06002083000020F0B50446EC
:10573000FB4801794279891A8279521E1140090683
:10574000090E35D08221217081794079651C091AB2
:105750000826C9B2F34A012904D3C0008118324691
:1057600028460BE0C9060F0EC00081183A462846AD
:10577000FEF7D7FFF01BC2B2E819EA49FEF7D1FFE6
:10578000E748E94B42798179521C491E0A40D2B25E
:1057900042711B78DB0909D00079801A08400006A5
:1057A000000E03D120782021084320700120F0BD95
:1057B0000020F0BDF8B59446DC4A05461E46127836
:1057C000CB082120520603D5002D0DD13120F8BD84
:1057D000D74A525D920607D4D64A525D9207920F7D
:1057E000022A01D81620F8BDD34CA27AE77A002A03
:1057F00009D0012A2ED0022AF5D1CB480078C00961
:105800000AD01F20F8BDF00708D0FF2FF9D1D8002B
:1058100088420AD1E5720AE0F00701D02020F8BDE5
:10582000AF4202D1D800884201D03320F8BDC34A2C
:105830006046D066C248818026730120A072FFF7BF
:1058400093F9F107F2D05028F0D0FF21E172002146
:10585000A172F8BD2220F8BDB749897A002901D08C
:105860001F2103E0B54A0021106701700846704708
:10587000B148807A002801D01F207047AF4A00202D
:105880001067704710B40C78042C02D910BC30207B
:105890007047AC4B64061A5C640ED209D2012243F5
:1058A0001A5452064978520EC9010A431A5410BCC0
:1058B000002070470A79042A01D330207047A24B98
:1058C0000001C018920000B580180422FEF729FFDD
:1058D000002000BD0D2250439C4A80184171C278BF
:1058E0009207920F022A01D0090A817170479449E8
:1058F0004880704792498A7802704988090A417045
:10590000704770B544000519914C61552C196270AF
:10591000904AA3701154D23AD279904202D10846EB
:10592000FEF779FD70BDF0B400201D235B028A4EA6
:105930008A4F014602258A4C0D222254894A8A4CFC
:10594000115404222254894C4200A352B352884C71
:105950003D542154874C2554874C2154874C215465
:10596000874C2154874CA152874CA152874A11542D
:10597000401C0828DFDB70484173F0BC70470A7890
:10598000774B1207120F1A544A7808331207120F76
:105990001A548A7810331207120F1A54CA78083B27
:1059A0001207120F1A544A790B7912021A436F4BDD
:1059B00040001A52CA798B791102674A1943115271
:1059C0007047674A125C1207120F0A70654A125C30
:1059D0004A70624A125C8A70634A125CCA70634AF7
:1059E0004000135C0B71125A120A4A715A4A135C36
:1059F0008B71105A000AC87170470A785C4BD20745
:105A0000D20F1A544A785B49022A0A5401D9022259
:105A10000A547047564A125C0A70564A105C487025
:105A200000208870C870087148718871C87170470B
:105A3000F0B4424D0021EE790A46B04208D14E4CF6
:105A4000FB27235C5B085B003B4023543A4B5A73B3
:105A5000384B434C1B5C9F07BF0F022F13D0DD4315
:105A6000AD073CD1255CEC0728D0DB0639D54300D7
:105A7000444F3E4EFC5AF65AB4421FD344498C421E
:105A80001AD1022119E0B04202D16B79082B0ED055
:105A90003B4B1D5C6D1CEDB21D54245C24071CD5D2
:105AA000314C245CA54218D301211A5415E0225C24
:105AB000120712D5012110E00121FA522F4B1C5C74
:105AC000641CE4B21C54AD0707D5264D2D5CAC42D6
:105AD00003D3FF2C10D001211A542C4A1154F0BCCE
